{
  "contractName": "FastCashMoneyPlus",
  "abi": [
    {
      "constant": true,
      "inputs": [],
      "name": "creationDate",
      "outputs": [
        {
          "name": "",
          "type": "uint256"
        }
      ],
      "payable": false,
      "stateMutability": "view",
      "type": "function"
    },
    {
      "constant": true,
      "inputs": [],
      "name": "name",
      "outputs": [
        {
          "name": "",
          "type": "string"
        }
      ],
      "payable": false,
      "stateMutability": "view",
      "type": "function"
    },
    {
      "constant": false,
      "inputs": [
        {
          "name": "_spender",
          "type": "address"
        },
        {
          "name": "_value",
          "type": "uint256"
        }
      ],
      "name": "approve",
      "outputs": [
        {
          "name": "success",
          "type": "bool"
        }
      ],
      "payable": false,
      "stateMutability": "nonpayable",
      "type": "function"
    },
    {
      "constant": false,
      "inputs": [
        {
          "name": "_toRoutingCode",
          "type": "bytes32"
        },
        {
          "name": "_amount",
          "type": "uint256"
        }
      ],
      "name": "transferToAccount",
      "outputs": [
        {
          "name": "success",
          "type": "bool"
        }
      ],
      "payable": false,
      "stateMutability": "nonpayable",
      "type": "function"
    },
    {
      "constant": false,
      "inputs": [],
      "name": "weeksFromCreation",
      "outputs": [
        {
          "name": "",
          "type": "uint256"
        }
      ],
      "payable": false,
      "stateMutability": "nonpayable",
      "type": "function"
    },
    {
      "constant": true,
      "inputs": [],
      "name": "totalSupply",
      "outputs": [
        {
          "name": "",
          "type": "uint256"
        }
      ],
      "payable": false,
      "stateMutability": "view",
      "type": "function"
    },
    {
      "constant": true,
      "inputs": [
        {
          "name": "",
          "type": "uint256"
        }
      ],
      "name": "routingCodes",
      "outputs": [
        {
          "name": "",
          "type": "bytes32"
        }
      ],
      "payable": false,
      "stateMutability": "view",
      "type": "function"
    },
    {
      "constant": false,
      "inputs": [
        {
          "name": "_from",
          "type": "address"
        },
        {
          "name": "_to",
          "type": "address"
        },
        {
          "name": "_amount",
          "type": "uint256"
        }
      ],
      "name": "transferFrom",
      "outputs": [
        {
          "name": "success",
          "type": "bool"
        }
      ],
      "payable": false,
      "stateMutability": "nonpayable",
      "type": "function"
    },
    {
      "constant": false,
      "inputs": [],
      "name": "totalInvestors",
      "outputs": [
        {
          "name": "",
          "type": "uint256"
        }
      ],
      "payable": false,
      "stateMutability": "nonpayable",
      "type": "function"
    },
    {
      "constant": false,
      "inputs": [
        {
          "name": "newCentralBanker",
          "type": "address"
        }
      ],
      "name": "setCentralBanker",
      "outputs": [],
      "payable": false,
      "stateMutability": "nonpayable",
      "type": "function"
    },
    {
      "constant": true,
      "inputs": [],
      "name": "decimals",
      "outputs": [
        {
          "name": "",
          "type": "uint8"
        }
      ],
      "payable": false,
      "stateMutability": "view",
      "type": "function"
    },
    {
      "constant": true,
      "inputs": [],
      "name": "centralBanker",
      "outputs": [
        {
          "name": "",
          "type": "address"
        }
      ],
      "payable": false,
      "stateMutability": "view",
      "type": "function"
    },
    {
      "constant": true,
      "inputs": [],
      "name": "USDWEI",
      "outputs": [
        {
          "name": "",
          "type": "uint256"
        }
      ],
      "payable": false,
      "stateMutability": "view",
      "type": "function"
    },
    {
      "constant": false,
      "inputs": [
        {
          "name": "_routingCode",
          "type": "bytes32"
        },
        {
          "name": "_referal",
          "type": "bytes32"
        }
      ],
      "name": "buy",
      "outputs": [],
      "payable": true,
      "stateMutability": "payable",
      "type": "function"
    },
    {
      "constant": true,
      "inputs": [],
      "name": "referalBonus",
      "outputs": [
        {
          "name": "",
          "type": "uint256"
        }
      ],
      "payable": false,
      "stateMutability": "view",
      "type": "function"
    },
    {
      "constant": true,
      "inputs": [
        {
          "name": "",
          "type": "address"
        }
      ],
      "name": "balanceOf",
      "outputs": [
        {
          "name": "",
          "type": "uint256"
        }
      ],
      "payable": false,
      "stateMutability": "view",
      "type": "function"
    },
    {
      "constant": false,
      "inputs": [
        {
          "name": "routingCode",
          "type": "bytes32"
        }
      ],
      "name": "balanceOfRoutingCode",
      "outputs": [
        {
          "name": "",
          "type": "uint256"
        }
      ],
      "payable": false,
      "stateMutability": "nonpayable",
      "type": "function"
    },
    {
      "constant": true,
      "inputs": [],
      "name": "symbol",
      "outputs": [
        {
          "name": "",
          "type": "string"
        }
      ],
      "payable": false,
      "stateMutability": "view",
      "type": "function"
    },
    {
      "constant": false,
      "inputs": [
        {
          "name": "_to",
          "type": "address"
        },
        {
          "name": "_amount",
          "type": "uint256"
        }
      ],
      "name": "transfer",
      "outputs": [
        {
          "name": "success",
          "type": "bool"
        }
      ],
      "payable": false,
      "stateMutability": "nonpayable",
      "type": "function"
    },
    {
      "constant": false,
      "inputs": [
        {
          "name": "_wei",
          "type": "uint256"
        }
      ],
      "name": "updateUSDWEI",
      "outputs": [
        {
          "name": "success",
          "type": "bool"
        }
      ],
      "payable": false,
      "stateMutability": "nonpayable",
      "type": "function"
    },
    {
      "constant": false,
      "inputs": [
        {
          "name": "_routingCode",
          "type": "bytes32"
        },
        {
          "name": "_to",
          "type": "address"
        }
      ],
      "name": "transferRoutingCode",
      "outputs": [
        {
          "name": "success",
          "type": "bool"
        }
      ],
      "payable": false,
      "stateMutability": "nonpayable",
      "type": "function"
    },
    {
      "constant": false,
      "inputs": [
        {
          "name": "_routingCode",
          "type": "bytes32"
        }
      ],
      "name": "createRoutingCode",
      "outputs": [
        {
          "name": "success",
          "type": "bool"
        }
      ],
      "payable": false,
      "stateMutability": "nonpayable",
      "type": "function"
    },
    {
      "constant": true,
      "inputs": [
        {
          "name": "_owner",
          "type": "address"
        },
        {
          "name": "_spender",
          "type": "address"
        }
      ],
      "name": "allowance",
      "outputs": [
        {
          "name": "remaining",
          "type": "uint256"
        }
      ],
      "payable": false,
      "stateMutability": "view",
      "type": "function"
    },
    {
      "constant": false,
      "inputs": [
        {
          "name": "_week",
          "type": "uint256"
        },
        {
          "name": "_value",
          "type": "uint256"
        },
        {
          "name": "_usdwei",
          "type": "uint256"
        }
      ],
      "name": "getExchangeRate",
      "outputs": [
        {
          "name": "",
          "type": "uint256"
        }
      ],
      "payable": false,
      "stateMutability": "nonpayable",
      "type": "function"
    },
    {
      "constant": false,
      "inputs": [
        {
          "name": "_newBonus",
          "type": "uint256"
        }
      ],
      "name": "updateReferalBonus",
      "outputs": [
        {
          "name": "success",
          "type": "bool"
        }
      ],
      "payable": false,
      "stateMutability": "nonpayable",
      "type": "function"
    },
    {
      "constant": true,
      "inputs": [
        {
          "name": "",
          "type": "bytes32"
        }
      ],
      "name": "routingCodeMap",
      "outputs": [
        {
          "name": "",
          "type": "address"
        }
      ],
      "payable": false,
      "stateMutability": "view",
      "type": "function"
    },
    {
      "payable": true,
      "stateMutability": "payable",
      "type": "fallback"
    },
    {
      "anonymous": false,
      "inputs": [
        {
          "indexed": true,
          "name": "_from",
          "type": "address"
        },
        {
          "indexed": true,
          "name": "_to",
          "type": "address"
        },
        {
          "indexed": false,
          "name": "_value",
          "type": "uint256"
        }
      ],
      "name": "Transfer",
      "type": "event"
    },
    {
      "anonymous": false,
      "inputs": [
        {
          "indexed": false,
          "name": "_address",
          "type": "address"
        },
        {
          "indexed": false,
          "name": "_amount",
          "type": "uint256"
        }
      ],
      "name": "Sale",
      "type": "event"
    },
    {
      "anonymous": false,
      "inputs": [
        {
          "indexed": true,
          "name": "_owner",
          "type": "address"
        },
        {
          "indexed": true,
          "name": "_spender",
          "type": "address"
        },
        {
          "indexed": false,
          "name": "_value",
          "type": "uint256"
        }
      ],
      "name": "Approval",
      "type": "event"
    }
  ],
  "bytecode": "0x60606040526040805190810160405280601481526020017f466173742043617368204d6f6e657920506c7573000000000000000000000000815250600190805190602001906200005192919062000231565b506040805190810160405280600881526020017f4641535443415348000000000000000000000000000000000000000000000000815250600290805190602001906200009f92919062000231565b506012600360006101000a81548160ff021916908360ff1602179055506605543df729c000600955600a600b556000336000806101000a81548173ffffffffffffffffffffffffffffffffffffffff021916908373ffffffffffffffffffffffffffffffffffffffff160217905550600360009054906101000a900460ff1660ff16600a0a620f4240026008819055507f656c656374726963474f445f504f574552767953347859363952000000000000905060068054806001018281620001689190620002b8565b9160005260206000209001600083909190915090600019169055503360046000836000191660001916815260200190815260200160002060006101000a81548173ffffffffffffffffffffffffffffffffffffffff021916908373ffffffffffffffffffffffffffffffffffffffff160217905550600854600560003373ffffffffffffffffffffffffffffffffffffffff1673ffffffffffffffffffffffffffffffffffffffff1681526020019081526020016000208190555042600a819055505062000337565b828054600181600116156101000203166002900490600052602060002090601f016020900481019282601f106200027457805160ff1916838001178555620002a5565b82800160010185558215620002a5579182015b82811115620002a457825182559160200191906001019062000287565b5b509050620002b49190620002e7565b5090565b815481835581811511620002e257818360005260206000209182019101620002e191906200030f565b5b505050565b6200030c91905b8082111562000308576000816000905550600101620002ee565b5090565b90565b6200033491905b808211156200033057600081600090555060010162000316565b5090565b90565b611b2880620003476000396000f300606060405260043610610154576000357c0100000000000000000000000000000000000000000000000000000000900463ffffffff16806305b344101461015f57806306fdde0314610188578063095ea7b3146102165780631084a1fb1461027057806317a7cd10146102b857806318160ddd146102e15780632263e8b71461030a57806323b872dd1461034957806329b8caff146103c25780632adc7da3146103eb578063313ce56714610424578063506b56da1461045357806354fbde65146104a857806359c8d647146104d157806363e0f8c7146104fa57806370a08231146105235780637139b1ca1461057057806395d89b41146105ab578063a9059cbb14610639578063d5667d8a14610693578063d9ca0b7f146106ce578063dbeab2751461072c578063dd62ed3e1461076b578063eccd8e0d146107d7578063edb649de14610820578063edf897931461085b575b61015c6108c2565b50005b341561016a57600080fd5b610172610af2565b6040518082815260200191505060405180910390f35b341561019357600080fd5b61019b610af8565b6040518080602001828103825283818151815260200191508051906020019080838360005b838110156101db5780820151818401526020810190506101c0565b50505050905090810190601f1680156102085780820380516001836020036101000a031916815260200191505b509250505060405180910390f35b341561022157600080fd5b610256600480803573ffffffffffffffffffffffffffffffffffffffff16906020019091908035906020019091905050610b96565b604051808215151515815260200191505060405180910390f35b341561027b57600080fd5b61029e600480803560001916906020019091908035906020019091905050610c88565b604051808215151515815260200191505060405180910390f35b34156102c357600080fd5b6102cb610cd8565b6040518082815260200191505060405180910390f35b34156102ec57600080fd5b6102f4610cf2565b6040518082815260200191505060405180910390f35b341561031557600080fd5b61032b6004808035906020019091905050610cf8565b60405180826000191660001916815260200191505060405180910390f35b341561035457600080fd5b6103a8600480803573ffffffffffffffffffffffffffffffffffffffff1690602001909190803573ffffffffffffffffffffffffffffffffffffffff16906020019091908035906020019091905050610d1c565b604051808215151515815260200191505060405180910390f35b34156103cd57600080fd5b6103d5610e5e565b6040518082815260200191505060405180910390f35b34156103f657600080fd5b610422600480803573ffffffffffffffffffffffffffffffffffffffff16906020019091905050610e6b565b005b341561042f57600080fd5b610437610f45565b604051808260ff1660ff16815260200191505060405180910390f35b341561045e57600080fd5b610466610f58565b604051808273ffffffffffffffffffffffffffffffffffffffff1673ffffffffffffffffffffffffffffffffffffffff16815260200191505060405180910390f35b34156104b357600080fd5b6104bb610f7d565b6040518082815260200191505060405180910390f35b6104f860048080356000191690602001909190803560001916906020019091905050610f83565b005b341561050557600080fd5b61050d61127b565b6040518082815260200191505060405180910390f35b341561052e57600080fd5b61055a600480803573ffffffffffffffffffffffffffffffffffffffff16906020019091905050611281565b6040518082815260200191505060405180910390f35b341561057b57600080fd5b610595600480803560001916906020019091905050611299565b6040518082815260200191505060405180910390f35b34156105b657600080fd5b6105be611322565b6040518080602001828103825283818151815260200191508051906020019080838360005b838110156105fe5780820151818401526020810190506105e3565b50505050905090810190601f16801561062b5780820380516001836020036101000a031916815260200191505b509250505060405180910390f35b341561064457600080fd5b610679600480803573ffffffffffffffffffffffffffffffffffffffff169060200190919080359060200190919050506113c0565b604051808215151515815260200191505060405180910390f35b341561069e57600080fd5b6106b460048080359060200190919050506113d5565b604051808215151515815260200191505060405180910390f35b34156106d957600080fd5b61071260048080356000191690602001909190803573ffffffffffffffffffffffffffffffffffffffff16906020019091905050611442565b604051808215151515815260200191505060405180910390f35b341561073757600080fd5b610751600480803560001916906020019091905050611522565b604051808215151515815260200191505060405180910390f35b341561077657600080fd5b6107c1600480803573ffffffffffffffffffffffffffffffffffffffff1690602001909190803573ffffffffffffffffffffffffffffffffffffffff16906020019091905050611679565b6040518082815260200191505060405180910390f35b34156107e257600080fd5b61080a6004808035906020019091908035906020019091908035906020019091905050611700565b6040518082815260200191505060405180910390f35b341561082b57600080fd5b610841600480803590602001909190505061179e565b604051808215151515815260200191505060405180910390f35b341561086657600080fd5b61088060048080356000191690602001909190505061180b565b604051808273ffffffffffffffffffffffffffffffffffffffff1673ffffffffffffffffffffffffffffffffffffffff16815260200191505060405180910390f35b6000806000806108d0610cd8565b92503491506108e28383600954611700565b90506000811115156108f357600080fd5b80600560008060009054906101000a900473ffffffffffffffffffffffffffffffffffffffff1673ffffffffffffffffffffffffffffffffffffffff1673ffffffffffffffffffffffffffffffffffffffff168152602001908152602001600020541015151561096257600080fd5b80600560003373ffffffffffffffffffffffffffffffffffffffff1673ffffffffffffffffffffffffffffffffffffffff1681526020019081526020016000206000828254019250508190555080600560008060009054906101000a900473ffffffffffffffffffffffffffffffffffffffff1673ffffffffffffffffffffffffffffffffffffffff1673ffffffffffffffffffffffffffffffffffffffff168152602001908152602001600020600082825403925050819055506000809054906101000a900473ffffffffffffffffffffffffffffffffffffffff1673ffffffffffffffffffffffffffffffffffffffff166108fc349081150290604051600060405180830381858888f193505050501515610a7e57600080fd5b7fc6851889326b4ff916523ef06f539b4cf0b81d78fc6e0f97c30e6223d18319903382604051808373ffffffffffffffffffffffffffffffffffffffff1673ffffffffffffffffffffffffffffffffffffffff1681526020018281526020019250505060405180910390a180935050505090565b600a5481565b60018054600181600116156101000203166002900480601f016020809104026020016040519081016040528092919081815260200182805460018160011615610100020316600290048015610b8e5780601f10610b6357610100808354040283529160200191610b8e565b820191906000526020600020905b815481529060010190602001808311610b7157829003601f168201915b505050505081565b600081600760003373ffffffffffffffffffffffffffffffffffffffff1673ffffffffffffffffffffffffffffffffffffffff16815260200190815260200160002060008573ffffffffffffffffffffffffffffffffffffffff1673ffffffffffffffffffffffffffffffffffffffff168152602001908152602001600020819055508273ffffffffffffffffffffffffffffffffffffffff163373ffffffffffffffffffffffffffffffffffffffff167f8c5be1e5ebec7d5bd14f71427d1e84f3dd0314c0f7b2291e5b200ac8c7c3b925846040518082815260200191505060405180910390a36001905092915050565b6000610cd03360046000866000191660001916815260200190815260200160002060009054906101000a900473ffffffffffffffffffffffffffffffffffffffff168461183e565b905092915050565b600062093a80600a544203811515610cec57fe5b04905090565b60085481565b600681815481101515610d0757fe5b90600052602060002090016000915090505481565b60008082600760008773ffffffffffffffffffffffffffffffffffffffff1673ffffffffffffffffffffffffffffffffffffffff16815260200190815260200160002060003373ffffffffffffffffffffffffffffffffffffffff1673ffffffffffffffffffffffffffffffffffffffff1681526020019081526020016000205410151515610daa57600080fd5b610db585858561183e565b90508015610e4c5782600760008773ffffffffffffffffffffffffffffffffffffffff1673ffffffffffffffffffffffffffffffffffffffff16815260200190815260200160002060003373ffffffffffffffffffffffffffffffffffffffff1673ffffffffffffffffffffffffffffffffffffffff16815260200190815260200160002060008282540392505081905550610e55565b60009150610e56565b5b509392505050565b6000600680549050905090565b6000809054906101000a900473ffffffffffffffffffffffffffffffffffffffff1673ffffffffffffffffffffffffffffffffffffffff163373ffffffffffffffffffffffffffffffffffffffff16141515610ec657600080fd5b600073ffffffffffffffffffffffffffffffffffffffff168173ffffffffffffffffffffffffffffffffffffffff1614151515610f0257600080fd5b806000806101000a81548173ffffffffffffffffffffffffffffffffffffffff021916908373ffffffffffffffffffffffffffffffffffffffff16021790555050565b600360009054906101000a900460ff1681565b6000809054906101000a900473ffffffffffffffffffffffffffffffffffffffff1681565b60095481565b6000806000610f906108c2565b9250600073ffffffffffffffffffffffffffffffffffffffff1660046000876000191660001916815260200190815260200160002060009054906101000a900473ffffffffffffffffffffffffffffffffffffffff1673ffffffffffffffffffffffffffffffffffffffff16141561100d5761100b85611522565b505b60007f01000000000000000000000000000000000000000000000000000000000000000284600060208110151561104057fe5b1a7f0100000000000000000000000000000000000000000000000000000000000000027effffffffffffffffffffffffffffffffffffffffffffffffffffffffffffff191614151561127457600b548381151561109957fe5b04600560008060009054906101000a900473ffffffffffffffffffffffffffffffffffffffff1673ffffffffffffffffffffffffffffffffffffffff1673ffffffffffffffffffffffffffffffffffffffff16815260200190815260200160002054111561111657600b548381151561110e57fe5b04915061117a565b600560008060009054906101000a900473ffffffffffffffffffffffffffffffffffffffff1673ffffffffffffffffffffffffffffffffffffffff1673ffffffffffffffffffffffffffffffffffffffff1681526020019081526020016000205491505b60046000856000191660001916815260200190815260200160002060009054906101000a900473ffffffffffffffffffffffffffffffffffffffff16905081600560008373ffffffffffffffffffffffffffffffffffffffff1673ffffffffffffffffffffffffffffffffffffffff1681526020019081526020016000206000828254019250508190555081600560008060009054906101000a900473ffffffffffffffffffffffffffffffffffffffff1673ffffffffffffffffffffffffffffffffffffffff1673ffffffffffffffffffffffffffffffffffffffff168152602001908152602001600020600082825403925050819055505b5050505050565b600b5481565b60056020528060005260406000206000915090505481565b60008060046000846000191660001916815260200190815260200160002060009054906101000a900473ffffffffffffffffffffffffffffffffffffffff169050600560008273ffffffffffffffffffffffffffffffffffffffff1673ffffffffffffffffffffffffffffffffffffffff16815260200190815260200160002054915050919050565b60028054600181600116156101000203166002900480601f0160208091040260200160405190810160405280929190818152602001828054600181600116156101000203166002900480156113b85780601f1061138d576101008083540402835291602001916113b8565b820191906000526020600020905b81548152906001019060200180831161139b57829003601f168201915b505050505081565b60006113cd33848461183e565b905092915050565b60008060009054906101000a900473ffffffffffffffffffffffffffffffffffffffff1673ffffffffffffffffffffffffffffffffffffffff163373ffffffffffffffffffffffffffffffffffffffff1614151561143257600080fd5b8160098190555060019050919050565b60008060046000856000191660001916815260200190815260200160002060009054906101000a900473ffffffffffffffffffffffffffffffffffffffff1690508073ffffffffffffffffffffffffffffffffffffffff163373ffffffffffffffffffffffffffffffffffffffff161415156114bd57600080fd5b8260046000866000191660001916815260200190815260200160002060006101000a81548173ffffffffffffffffffffffffffffffffffffffff021916908373ffffffffffffffffffffffffffffffffffffffff160217905550600191505092915050565b60008073ffffffffffffffffffffffffffffffffffffffff1660046000846000191660001916815260200190815260200160002060009054906101000a900473ffffffffffffffffffffffffffffffffffffffff1673ffffffffffffffffffffffffffffffffffffffff1614151561159957600080fd5b6000600560003373ffffffffffffffffffffffffffffffffffffffff1673ffffffffffffffffffffffffffffffffffffffff168152602001908152602001600020541115156115e757600080fd5b3360046000846000191660001916815260200190815260200160002060006101000a81548173ffffffffffffffffffffffffffffffffffffffff021916908373ffffffffffffffffffffffffffffffffffffffff160217905550600680548060010182816116559190611aab565b91600052602060002090016000849091909150906000191690555060019050919050565b6000600760008473ffffffffffffffffffffffffffffffffffffffff1673ffffffffffffffffffffffffffffffffffffffff16815260200190815260200160002060008373ffffffffffffffffffffffffffffffffffffffff1673ffffffffffffffffffffffffffffffffffffffff16815260200190815260200160002054905092915050565b600080600080600080600060478a111561171d5760479550611721565b8995505b600094506032861115611735576032860394505b600a9350848401600360009054906101000a900460ff1660ff16870103925082600a0a60048a0202915084600a0a86600c0a81151561177057fe5b0484600a0a8981151561177f57fe5b04029050808281151561178e57fe5b0496505050505050509392505050565b60008060009054906101000a900473ffffffffffffffffffffffffffffffffffffffff1673ffffffffffffffffffffffffffffffffffffffff163373ffffffffffffffffffffffffffffffffffffffff161415156117fb57600080fd5b81600b8190555060019050919050565b60046020528060005260406000206000915054906101000a900473ffffffffffffffffffffffffffffffffffffffff1681565b60008073ffffffffffffffffffffffffffffffffffffffff168373ffffffffffffffffffffffffffffffffffffffff161415151561187b57600080fd5b3073ffffffffffffffffffffffffffffffffffffffff168373ffffffffffffffffffffffffffffffffffffffff16141515156118b657600080fd5b6000821115156118c557600080fd5b81600560008673ffffffffffffffffffffffffffffffffffffffff1673ffffffffffffffffffffffffffffffffffffffff168152602001908152602001600020541015151561191357600080fd5b600560008473ffffffffffffffffffffffffffffffffffffffff1673ffffffffffffffffffffffffffffffffffffffff1681526020019081526020016000205482600560008673ffffffffffffffffffffffffffffffffffffffff1673ffffffffffffffffffffffffffffffffffffffff16815260200190815260200160002054011115156119a157600080fd5b81600560008673ffffffffffffffffffffffffffffffffffffffff1673ffffffffffffffffffffffffffffffffffffffff1681526020019081526020016000206000828254039250508190555081600560008573ffffffffffffffffffffffffffffffffffffffff1673ffffffffffffffffffffffffffffffffffffffff168152602001908152602001600020600082825401925050819055508273ffffffffffffffffffffffffffffffffffffffff163373ffffffffffffffffffffffffffffffffffffffff167fddf252ad1be2c89b69c2b068fc378daa952ba7f163c4a11628f55a4df523b3ef846040518082815260200191505060405180910390a3600190509392505050565b815481835581811511611ad257818360005260206000209182019101611ad19190611ad7565b5b505050565b611af991905b80821115611af5576000816000905550600101611add565b5090565b905600a165627a7a723058208768d41758f8ad22ad5ec21337bf879930546a6e1d8ced57f59499bb0eff3e8c0029",
  "source": "pragma solidity ^0.4.17;\n/*\n  Copyright 2017, FastCashMoneyPlus.biz\n\n  This is highly propriatary software. Under no circumstances is anyone, except for employees of\n  FastCashMoneyPlus.biz, authorized to modify, distribute, use, or otherwise profit from these\n  contracts. Anyone attempting to do so will be persecuted under the full extent of the law.\n*/\n\ncontract FastCashMoneyPlusPermissions {\n  address public centralBanker;\n\n  function FastCashMoneyPlusPermissions() public {\n    centralBanker = msg.sender;\n  }\n\n  modifier onlyCentralBanker() {\n    require(msg.sender == centralBanker);\n    _;\n  }\n\n  function setCentralBanker(address newCentralBanker) external onlyCentralBanker {\n    require(newCentralBanker != address(0));\n    centralBanker = newCentralBanker;\n  }\n}\n\ncontract FastCashMoneyPlusBase is FastCashMoneyPlusPermissions {\n  string public name = \"Fast Cash Money Plus\";\n  string public symbol = \"FASTCASH\";\n  uint8 public decimals = 18;\n}\n\ncontract FastCashMoneyPlusStorage is FastCashMoneyPlusBase {\n  mapping (bytes32 => address) public routingCodeMap;\n  mapping (address => uint) public balanceOf;\n  bytes32[] public routingCodes;\n\n  function balanceOfRoutingCode(bytes32 routingCode) external returns (uint) {\n    address _address = routingCodeMap[routingCode];\n    return balanceOf[_address];\n  }\n\n  function totalInvestors() external returns (uint) {\n    return routingCodes.length;\n  }\n\n  function createRoutingCode(bytes32 _routingCode) public returns (bool success) {\n    require(routingCodeMap[_routingCode] == address(0));\n    require(balanceOf[msg.sender] > 0);\n\n    routingCodeMap[_routingCode] = msg.sender;\n    routingCodes.push(_routingCode);\n    return true;\n  }\n\n  // add a function that checks if an account exists\n}\n\n// Maintain ERC20 compliance -- allow other contracts to access accounts\ncontract FastCashMoneyPlusAccessControl is FastCashMoneyPlusStorage {\n  mapping (address => mapping (address => uint)) internal allowed;\n\n  event Approval(address indexed _owner, address indexed _spender, uint _value);\n\n  function approve(address _spender, uint _value) external returns (bool success) {\n    allowed[msg.sender][_spender] = _value;\n    Approval(msg.sender, _spender, _value);\n    return true;\n  }\n  function allowance(address _owner, address _spender) external constant returns (uint remaining) {\n    return allowed[_owner][_spender];\n  }\n}\n\ncontract FastCashMoneyPlusSales is FastCashMoneyPlusAccessControl {\n  uint256 public totalSupply;\n  uint public USDWEI = 1500000000000000;\n  uint public creationDate;\n  uint private constant oneWeek = 60 * 60 * 24 * 7;\n  uint public referalBonus = 10;\n\n  event Sale(address _address, uint _amount);\n\n  function FastCashMoneyPlusSales() public {\n    // need to adjust total supply by decimals\n    totalSupply = 1000000 * 10 ** uint256(decimals);\n\n    bytes32 centralBankerRoutingCode = \"electricGOD_POWERvyS4xY69R\";\n    routingCodes.push(centralBankerRoutingCode);\n    routingCodeMap[centralBankerRoutingCode] = msg.sender;\n\n    balanceOf[msg.sender] = totalSupply;\n    creationDate = now;\n  }\n\n  function updateUSDWEI(uint _wei) external onlyCentralBanker returns (bool success) {\n    USDWEI = _wei;\n    return true;\n  }\n\n  function updateReferalBonus(uint _newBonus) external onlyCentralBanker returns (bool success) {\n    referalBonus = _newBonus;\n    return true;\n  }\n\n  function weeksFromCreation() returns (uint) {\n    return (now - creationDate) / oneWeek;\n  }\n\n  function getExchangeRate(uint _week, uint _value, uint _usdwei) public returns (uint) {\n    uint __week;\n    if (_week > 71) {\n      __week = 71;\n    } else {\n      __week = _week;\n    }\n\n    uint extraAdj = 0;\n    if (__week > 50) {\n      extraAdj = __week - 50;\n    }\n\n    uint minAdj = 10;\n    uint x = __week + decimals - (minAdj + extraAdj);\n\n    uint n = _value * 4 * uint(10 ** x);\n    uint d = ( _usdwei / uint(10 ** minAdj) ) * (uint(12 ** __week) / uint(10 ** extraAdj));\n\n    return n / d;\n  }\n\n  function _makeSale() private returns (uint) {\n    uint _week = weeksFromCreation();\n    uint _value = msg.value;\n\n    uint moneyBucks = getExchangeRate(_week, _value, USDWEI);\n\n    require(moneyBucks > 0);\n    require(balanceOf[centralBanker] >= moneyBucks);\n\n    balanceOf[msg.sender] += moneyBucks;\n    balanceOf[centralBanker] -= moneyBucks;\n\n    centralBanker.transfer(msg.value);\n    Sale(msg.sender, moneyBucks);\n    return moneyBucks;\n  }\n\n  function buy(bytes32 _routingCode, bytes32 _referal) payable {\n    uint moneyBucks = _makeSale();\n\n    if (routingCodeMap[_routingCode] == address(0)) {\n      createRoutingCode(_routingCode);\n    }\n\n    if (_referal[0] != 0) {\n      uint referalFee;\n      if (balanceOf[centralBanker] > (moneyBucks / referalBonus)) {\n        referalFee = moneyBucks / referalBonus;\n      } else {\n        referalFee = balanceOf[centralBanker];\n      }\n      address reference = routingCodeMap[_referal];\n      balanceOf[reference] += referalFee;\n      balanceOf[centralBanker] -= referalFee;\n    }\n  }\n\n  function () payable {\n    _makeSale();\n  }\n}\n\ncontract FastCashMoneyPlusTransfer is FastCashMoneyPlusSales {\n  event Transfer(address indexed _from, address indexed _to, uint _value);\n\n  function _transfer(\n    address _from,\n    address _to,\n    uint _amount\n  ) internal returns (bool success) {\n    require(_to != address(0));\n    require(_to != address(this));\n    require(_amount > 0);\n    require(balanceOf[_from] >= _amount);\n    require(balanceOf[_to] + _amount > balanceOf[_to]);\n\n    balanceOf[_from] -= _amount;\n    balanceOf[_to] += _amount;\n\n    Transfer(msg.sender, _to, _amount);\n\n    return true;\n  }\n// TODO transfer messages?\n  function transfer(address _to, uint _amount) external returns (bool success) {\n    return _transfer(msg.sender, _to, _amount);\n  }\n\n  function transferFrom(address _from, address _to, uint _amount) external returns (bool success) {\n    require(allowed[_from][msg.sender] >= _amount);\n\n    bool tranferSuccess = _transfer(_from, _to, _amount);\n    if (tranferSuccess) {\n      allowed[_from][msg.sender] -= _amount;\n    } else {\n      return false;\n    }\n  }\n\n  function transferToAccount(bytes32 _toRoutingCode, uint _amount) external returns (bool success) {\n    return _transfer(msg.sender, routingCodeMap[_toRoutingCode], _amount);\n  }\n\n  // need to play around with this to figure out some of the specifics\n  function transferRoutingCode(bytes32 _routingCode, address _to) external returns (bool success) {\n    address owner = routingCodeMap[_routingCode];\n    require(msg.sender == owner);\n\n    routingCodeMap[_routingCode] = _to;\n    return true;\n  }\n}\n\ncontract FastCashMoneyPlus is FastCashMoneyPlusTransfer {\n\n}\n",
  "sourcePath": "/Users/spikelny/Desktop/projects/fastcash-ico/contracts/FastCashMoneyPlus.sol",
  "compiler": {
    "name": "solc",
    "version": "0.4.18+commit.9cf6e910.Emscripten.clang"
  },
  "schemaVersion": "1.0.1",
  "updatedAt": "2017-12-26T00:25:27.326Z"
}