{
  "contractName": "FastCashMoneyPlusSales",
  "abi": [
    {
      "constant": true,
      "inputs": [],
      "name": "name",
      "outputs": [
        {
          "name": "",
          "type": "string"
        }
      ],
      "payable": false,
      "stateMutability": "view",
      "type": "function"
    },
    {
      "constant": false,
      "inputs": [
        {
          "name": "_spender",
          "type": "address"
        },
        {
          "name": "_value",
          "type": "uint256"
        }
      ],
      "name": "approve",
      "outputs": [
        {
          "name": "success",
          "type": "bool"
        }
      ],
      "payable": false,
      "stateMutability": "nonpayable",
      "type": "function"
    },
    {
      "constant": false,
      "inputs": [
        {
          "name": "_routingCode",
          "type": "bytes32"
        },
        {
          "name": "_amount",
          "type": "uint256"
        }
      ],
      "name": "buy",
      "outputs": [
        {
          "name": "success",
          "type": "bool"
        }
      ],
      "payable": false,
      "stateMutability": "nonpayable",
      "type": "function"
    },
    {
      "constant": true,
      "inputs": [
        {
          "name": "",
          "type": "uint256"
        }
      ],
      "name": "totalSupply",
      "outputs": [
        {
          "name": "",
          "type": "uint256"
        }
      ],
      "payable": false,
      "stateMutability": "view",
      "type": "function"
    },
    {
      "constant": true,
      "inputs": [
        {
          "name": "",
          "type": "uint256"
        }
      ],
      "name": "routingCodes",
      "outputs": [
        {
          "name": "",
          "type": "bytes32"
        }
      ],
      "payable": false,
      "stateMutability": "view",
      "type": "function"
    },
    {
      "constant": false,
      "inputs": [
        {
          "name": "_from",
          "type": "address"
        },
        {
          "name": "_to",
          "type": "address"
        },
        {
          "name": "_value",
          "type": "uint256"
        }
      ],
      "name": "transferFrom",
      "outputs": [
        {
          "name": "success",
          "type": "bool"
        }
      ],
      "payable": false,
      "stateMutability": "nonpayable",
      "type": "function"
    },
    {
      "constant": false,
      "inputs": [
        {
          "name": "newCentralBanker",
          "type": "address"
        }
      ],
      "name": "setCentralBanker",
      "outputs": [
        {
          "name": "",
          "type": "address"
        }
      ],
      "payable": false,
      "stateMutability": "nonpayable",
      "type": "function"
    },
    {
      "constant": true,
      "inputs": [
        {
          "name": "",
          "type": "address"
        }
      ],
      "name": "decimals",
      "outputs": [
        {
          "name": "",
          "type": "uint8"
        }
      ],
      "payable": false,
      "stateMutability": "view",
      "type": "function"
    },
    {
      "constant": true,
      "inputs": [],
      "name": "centralBanker",
      "outputs": [
        {
          "name": "",
          "type": "address"
        }
      ],
      "payable": false,
      "stateMutability": "view",
      "type": "function"
    },
    {
      "constant": true,
      "inputs": [
        {
          "name": "",
          "type": "address"
        }
      ],
      "name": "balanceOf",
      "outputs": [
        {
          "name": "",
          "type": "uint256"
        }
      ],
      "payable": false,
      "stateMutability": "view",
      "type": "function"
    },
    {
      "constant": true,
      "inputs": [],
      "name": "symbol",
      "outputs": [
        {
          "name": "",
          "type": "string"
        }
      ],
      "payable": false,
      "stateMutability": "view",
      "type": "function"
    },
    {
      "constant": true,
      "inputs": [
        {
          "name": "_owner",
          "type": "address",
          "indexed": false
        },
        {
          "name": "_spender",
          "type": "address",
          "indexed": false
        }
      ],
      "name": "allowance",
      "outputs": [
        {
          "name": "remaining",
          "type": "uint256"
        }
      ],
      "payable": false,
      "stateMutability": "view",
      "type": "function",
      "anonymous": false
    },
    {
      "constant": true,
      "inputs": [
        {
          "name": "",
          "type": "bytes32"
        }
      ],
      "name": "routingCodeMap",
      "outputs": [
        {
          "name": "",
          "type": "address"
        }
      ],
      "payable": false,
      "stateMutability": "view",
      "type": "function"
    },
    {
      "inputs": [
        {
          "indexed": false,
          "name": "_routingCode",
          "type": "bytes32"
        },
        {
          "indexed": false,
          "name": "_amount",
          "type": "uint256"
        }
      ],
      "payable": false,
      "stateMutability": "nonpayable",
      "type": "constructor",
      "anonymous": false,
      "name": "Sale"
    },
    {
      "anonymous": false,
      "inputs": [
        {
          "indexed": false,
          "name": "_routingCode",
          "type": "bytes32"
        },
        {
          "indexed": false,
          "name": "_amount",
          "type": "uint256"
        },
        {
          "indexed": false,
          "name": "_value",
          "type": "uint256"
        }
      ],
      "name": "Sale",
      "type": "event"
    },
    {
      "anonymous": false,
      "inputs": [
        {
          "indexed": true,
          "name": "_from",
          "type": "address"
        },
        {
          "indexed": true,
          "name": "_to",
          "type": "address"
        },
        {
          "indexed": false,
          "name": "_value",
          "type": "uint256"
        }
      ],
      "name": "Transfer",
      "type": "event"
    },
    {
      "anonymous": false,
      "inputs": [
        {
          "indexed": true,
          "name": "_owner",
          "type": "address"
        },
        {
          "indexed": true,
          "name": "_spender",
          "type": "address"
        },
        {
          "indexed": false,
          "name": "_value",
          "type": "uint256"
        }
      ],
      "name": "Approval",
      "type": "event"
    }
  ],
  "bytecode": "0x60606040526040805190810160405280601481526020017f466173742043617368204d6f6e657920506c75730000000000000000000000008152506001908051906020019061004f929190610225565b506040805190810160405280600881526020017f46415354434153480000000000000000000000000000000000000000000000008152506002908051906020019061009b929190610225565b506012600360006101000a81548160ff021916908360ff160217905550620f424060075534156100ca57600080fd5b600080336000806101000a81548173ffffffffffffffffffffffffffffffffffffffff021916908373ffffffffffffffffffffffffffffffffffffffff1602179055507f656c656374726963474f445f504f57455276795334785936395200000000000091506006805480600101828161014491906102a5565b9160005260206000209001600084909190915090600019169055503360046000846000191660001916815260200190815260200160002060006101000a81548173ffffffffffffffffffffffffffffffffffffffff021916908373ffffffffffffffffffffffffffffffffffffffff16021790555060046007548115156101c757fe5b0490508060076000828254039250508190555080600560003373ffffffffffffffffffffffffffffffffffffffff1673ffffffffffffffffffffffffffffffffffffffff16815260200190815260200160002081905550505061031b565b828054600181600116156101000203166002900490600052602060002090601f016020900481019282601f1061026657805160ff1916838001178555610294565b82800160010185558215610294579182015b82811115610293578251825591602001919060010190610278565b5b5090506102a191906102d1565b5090565b8154818355818115116102cc578183600052602060002091820191016102cb91906102f6565b5b505050565b6102f391905b808211156102ef5760008160009055506001016102d7565b5090565b90565b61031891905b808211156103145760008160009055506001016102fc565b5090565b90565b61085f8061032a6000396000f3006060604052600436106100c5576000357c0100000000000000000000000000000000000000000000000000000000900463ffffffff16806306fdde03146100ca578063095ea7b3146101585780630ddeb632146101b257806318160ddd146101fa5780632263e8b71461022357806323b872dd146102625780632adc7da3146102db578063313ce56714610314578063506b56da1461034357806370a082311461039857806395d89b41146103e5578063dd62ed3e14610473578063edf89793146104df575b600080fd5b34156100d557600080fd5b6100dd610546565b6040518080602001828103825283818151815260200191508051906020019080838360005b8381101561011d578082015181840152602081019050610102565b50505050905090810190601f16801561014a5780820380516001836020036101000a031916815260200191505b509250505060405180910390f35b341561016357600080fd5b610198600480803573ffffffffffffffffffffffffffffffffffffffff169060200190919080359060200190919050506105e4565b604051808215151515815260200191505060405180910390f35b34156101bd57600080fd5b6101e06004808035600019169060200190919080359060200190919050506105ef565b604051808215151515815260200191505060405180910390f35b341561020557600080fd5b61020d6105f7565b6040518082815260200191505060405180910390f35b341561022e57600080fd5b61024460048080359060200190919050506105fd565b60405180826000191660001916815260200191505060405180910390f35b341561026d57600080fd5b6102c1600480803573ffffffffffffffffffffffffffffffffffffffff1690602001909190803573ffffffffffffffffffffffffffffffffffffffff16906020019091908035906020019091905050610621565b604051808215151515815260200191505060405180910390f35b34156102e657600080fd5b610312600480803573ffffffffffffffffffffffffffffffffffffffff1690602001909190505061062d565b005b341561031f57600080fd5b610327610707565b604051808260ff1660ff16815260200191505060405180910390f35b341561034e57600080fd5b61035661071a565b604051808273ffffffffffffffffffffffffffffffffffffffff1673ffffffffffffffffffffffffffffffffffffffff16815260200191505060405180910390f35b34156103a357600080fd5b6103cf600480803573ffffffffffffffffffffffffffffffffffffffff1690602001909190505061073f565b6040518082815260200191505060405180910390f35b34156103f057600080fd5b6103f8610757565b6040518080602001828103825283818151815260200191508051906020019080838360005b8381101561043857808201518184015260208101905061041d565b50505050905090810190601f1680156104655780820380516001836020036101000a031916815260200191505b509250505060405180910390f35b341561047e57600080fd5b6104c9600480803573ffffffffffffffffffffffffffffffffffffffff1690602001909190803573ffffffffffffffffffffffffffffffffffffffff169060200190919050506107f5565b6040518082815260200191505060405180910390f35b34156104ea57600080fd5b610504600480803560001916906020019091905050610800565b604051808273ffffffffffffffffffffffffffffffffffffffff1673ffffffffffffffffffffffffffffffffffffffff16815260200191505060405180910390f35b60018054600181600116156101000203166002900480601f0160208091040260200160405190810160405280929190818152602001828054600181600116156101000203166002900480156105dc5780601f106105b1576101008083540402835291602001916105dc565b820191906000526020600020905b8154815290600101906020018083116105bf57829003601f168201915b505050505081565b600080905092915050565b600092915050565b60075481565b60068181548110151561060c57fe5b90600052602060002090016000915090505481565b60008090509392505050565b6000809054906101000a900473ffffffffffffffffffffffffffffffffffffffff1673ffffffffffffffffffffffffffffffffffffffff163373ffffffffffffffffffffffffffffffffffffffff1614151561068857600080fd5b600073ffffffffffffffffffffffffffffffffffffffff168173ffffffffffffffffffffffffffffffffffffffff16141515156106c457600080fd5b806000806101000a81548173ffffffffffffffffffffffffffffffffffffffff021916908373ffffffffffffffffffffffffffffffffffffffff16021790555050565b600360009054906101000a900460ff1681565b6000809054906101000a900473ffffffffffffffffffffffffffffffffffffffff1681565b60056020528060005260406000206000915090505481565b60028054600181600116156101000203166002900480601f0160208091040260200160405190810160405280929190818152602001828054600181600116156101000203166002900480156107ed5780601f106107c2576101008083540402835291602001916107ed565b820191906000526020600020905b8154815290600101906020018083116107d057829003601f168201915b505050505081565b600080905092915050565b60046020528060005260406000206000915054906101000a900473ffffffffffffffffffffffffffffffffffffffff16815600a165627a7a723058202899ad231c0e89962d5c662dd3c712bf12ffb683c8276d042e10f8b8538c55320029",
  "source": "pragma solidity ^0.4.17;\n\ncontract ERC20 {\n  // Maybe i should implement these?\n  // Remain compliant with ERC20 without actually implementing these features\n  function transferFrom(address _from, address _to, uint256 _value) external returns (bool success) {\n    return false;\n  }\n  function approve(address _spender, uint256 _value) external returns (bool success) {\n    return false;\n  }\n  function allowance(address _owner, address _spender) external constant returns (uint256 remaining) {\n    return 0;\n  }\n\n  // Triggered when tokens are transferred.\n  event Transfer(address indexed _from, address indexed _to, uint256 _value);\n\n  // Triggered whenever approve(address _spender, uint256 _value) is called.\n  event Approval(address indexed _owner, address indexed _spender, uint256 _value);\n\n  // Optional\n  // function tokensOfOwner(address _owner) external view returns (uint256[] tokenIds);\n  // function tokenMetadata(uint256 _tokenId, string _preferredTransport) public view returns (string infoUrl);\n\n  // ERC-165 Compatibility (https://github.com/ethereum/EIPs/issues/165)\n  // function supportsInterface(bytes4 _interfaceID) external view returns (bool);\n}\n\ncontract FastCashMoneyPlusAccessControl {\n  address public centralBanker;\n  // TODO make pausable?\n\n  function FastCashMoneyPlusAccessControl() public {\n    centralBanker = msg.sender;\n  }\n\n  modifier onlyCentralBanker() {\n    require(msg.sender == centralBanker);\n    _;\n  }\n\n  function setCentralBanker(address newCentralBanker) external onlyCentralBanker {\n    require(newCentralBanker != address(0));\n    centralBanker = newCentralBanker;\n  }\n}\n\ncontract FastCashMoneyPlusBase is FastCashMoneyPlusAccessControl, ERC20 {\n  string public name = \"Fast Cash Money Plus\";\n  string public symbol = \"FASTCASH\";\n  uint8 public decimals = 18;\n\n  event Sale(bytes32 _routingCode, uint256 _amount);\n}\n\ncontract FastCashMoneyPlusStorage is FastCashMoneyPlusBase {\n  mapping (bytes32 => address) public routingCodeMap;\n  mapping (address => uint256) public balanceOf;\n  bytes32[] public routingCodes;\n\n  // add a function that checks if an account exists\n}\n\ncontract FastCashMoneyPlusSales is FastCashMoneyPlusStorage {\n  // is this supposed to by the total circulating supply, or si this the bank?\n  uint256 public totalSupply = 1000000;\n\n  // TODO exchangeRate -- onlyCentralBanker can change\n  // TODO fastcash > eth price goes up by constant multiplier every week\n    // start at equivalent of $0.25\n    // every week, increase by 1.2815392824 (brings you to 100,000 after one year)\n\n  function FastCashMoneyPlusSales() public {\n    bytes32 centralBankerRoutingCode = \"electricGOD_POWERvyS4xY69R\";\n    routingCodes.push(centralBankerRoutingCode);\n    routingCodeMap[centralBankerRoutingCode] = msg.sender;\n\n    uint256 reserve = totalSupply / 4;\n    totalSupply -= reserve;\n    balanceOf[msg.sender] = reserve;\n  }\n\n  function buy(bytes32 _routingCode, uint256 _amount/*, bytes32 referal*/) external returns (bool success) {\n// if routing code exists, use address\n// else if routing code doesnt exist, add to mappings + routing code list\n// adjust amount by exchange rate\n// require that amount is > 0\n// require that there is enough  fastcash in the bank\n// check for overflows\n\n// calculate eth cost\n  // based on exchange rate by \"trusted third party\"\n  // adjust by multiplier, which doubles every couple weeks or so\n// transfer central banker the eth\n  // give existing fastcash holders part of it?\n\n// withdraw from bank\n// credit to new routing code\n// pay finder's fee if any money is left in bank\n  // or, just give referers some eth if their balance is above a certain number\n// Sale event\n// return true\n  }\n}\n\ncontract FastCashMoneyPlusTransfer is FastCashMoneyPlusSales {\n  function _transfer(\n    address _from,\n    address _to,\n    uint256 _amount\n  ) internal returns (bool success) {\n    require(_to != address(0));\n    require(_to != address(this));\n    require(_amount > 0);\n    require(balanceOf[_from] >= _amount);\n    require(balanceOf[_to] + _amount > balanceOf[_to]);\n\n    balanceOf[_from] -= _amount;\n    balanceOf[_to] += _amount;\n\n    Transfer(msg.sender, _to, _amount);\n\n    return true;\n  }\n// TODO transfer messages?\n  function transfer(address _to, uint256 _amount) external returns (bool success) {\n    return _transfer(msg.sender, _to, _amount);\n  }\n\n  function transferToAccount(bytes32 _toRoutingCode, uint256 _amount) external returns (bool success) {\n    return _transfer(msg.sender, routingCodeMap[_toRoutingCode], _amount);\n  }\n\n  // TODO transfer account ownership?\n}\n\ncontract FastCashMoneyPlus is FastCashMoneyPlusTransfer {\n\n}\n",
  "sourcePath": "/Users/spikelny/Desktop/projects/fastcash-ico/contracts/FastCashMoneyPlus.sol",
  "compiler": {
    "name": "solc",
    "version": "0.4.18+commit.9cf6e910.Emscripten.clang"
  },
  "schemaVersion": "1.0.1",
  "updatedAt": "2017-12-17T04:03:07.570Z"
}