{
  "contractName": "FastCashMoneyPlus",
  "abi": [
    {
      "constant": true,
      "inputs": [],
      "name": "name",
      "outputs": [
        {
          "name": "",
          "type": "string"
        }
      ],
      "payable": false,
      "stateMutability": "view",
      "type": "function"
    },
    {
      "constant": false,
      "inputs": [
        {
          "name": "_spender",
          "type": "address"
        },
        {
          "name": "_value",
          "type": "uint256"
        }
      ],
      "name": "approve",
      "outputs": [
        {
          "name": "success",
          "type": "bool"
        }
      ],
      "payable": false,
      "stateMutability": "nonpayable",
      "type": "function"
    },
    {
      "constant": false,
      "inputs": [
        {
          "name": "_routingCode",
          "type": "bytes32"
        },
        {
          "name": "_amount",
          "type": "uint256"
        }
      ],
      "name": "buy",
      "outputs": [
        {
          "name": "success",
          "type": "bool"
        }
      ],
      "payable": false,
      "stateMutability": "nonpayable",
      "type": "function"
    },
    {
      "constant": false,
      "inputs": [
        {
          "name": "_toRoutingCode",
          "type": "bytes32"
        },
        {
          "name": "_amount",
          "type": "uint256"
        }
      ],
      "name": "transferToAccount",
      "outputs": [
        {
          "name": "success",
          "type": "bool"
        }
      ],
      "payable": false,
      "stateMutability": "nonpayable",
      "type": "function"
    },
    {
      "constant": true,
      "inputs": [
        {
          "name": "",
          "type": "uint256"
        }
      ],
      "name": "totalSupply",
      "outputs": [
        {
          "name": "",
          "type": "uint256"
        }
      ],
      "payable": false,
      "stateMutability": "view",
      "type": "function"
    },
    {
      "constant": true,
      "inputs": [
        {
          "name": "",
          "type": "uint256"
        }
      ],
      "name": "routingCodes",
      "outputs": [
        {
          "name": "",
          "type": "bytes32"
        }
      ],
      "payable": false,
      "stateMutability": "view",
      "type": "function"
    },
    {
      "constant": false,
      "inputs": [
        {
          "name": "_from",
          "type": "address"
        },
        {
          "name": "_to",
          "type": "address"
        },
        {
          "name": "_value",
          "type": "uint256"
        }
      ],
      "name": "transferFrom",
      "outputs": [
        {
          "name": "success",
          "type": "bool"
        }
      ],
      "payable": false,
      "stateMutability": "nonpayable",
      "type": "function"
    },
    {
      "constant": false,
      "inputs": [
        {
          "name": "newCentralBanker",
          "type": "address"
        }
      ],
      "name": "setCentralBanker",
      "outputs": [
        {
          "name": "",
          "type": "address"
        }
      ],
      "payable": false,
      "stateMutability": "nonpayable",
      "type": "function"
    },
    {
      "constant": true,
      "inputs": [
        {
          "name": "",
          "type": "address"
        }
      ],
      "name": "decimals",
      "outputs": [
        {
          "name": "",
          "type": "uint8"
        }
      ],
      "payable": false,
      "stateMutability": "view",
      "type": "function"
    },
    {
      "constant": true,
      "inputs": [],
      "name": "centralBanker",
      "outputs": [
        {
          "name": "",
          "type": "address"
        }
      ],
      "payable": false,
      "stateMutability": "view",
      "type": "function"
    },
    {
      "constant": true,
      "inputs": [
        {
          "name": "",
          "type": "address"
        },
        {
          "name": "_amount",
          "type": "uint256"
        }
      ],
      "name": "balanceOf",
      "outputs": [
        {
          "name": "",
          "type": "uint256"
        }
      ],
      "payable": false,
      "stateMutability": "view",
      "type": "function"
    },
    {
      "constant": true,
      "inputs": [
        {
          "name": "",
          "type": "bytes32"
        }
      ],
      "name": "symbol",
      "outputs": [
        {
          "name": "",
          "type": "string"
        }
      ],
      "payable": false,
      "stateMutability": "view",
      "type": "function"
    },
    {
      "constant": false,
      "inputs": [
        {
          "name": "_to",
          "type": "address",
          "indexed": true
        },
        {
          "name": "_amount",
          "type": "uint256",
          "indexed": true
        },
        {
          "indexed": false,
          "name": "_value",
          "type": "uint256"
        }
      ],
      "name": "transfer",
      "outputs": [
        {
          "name": "success",
          "type": "bool"
        }
      ],
      "payable": false,
      "stateMutability": "nonpayable",
      "type": "function",
      "anonymous": false
    },
    {
      "constant": true,
      "inputs": [
        {
          "name": "_owner",
          "type": "address",
          "indexed": false
        },
        {
          "name": "_spender",
          "type": "address",
          "indexed": false
        }
      ],
      "name": "allowance",
      "outputs": [
        {
          "name": "remaining",
          "type": "uint256"
        }
      ],
      "payable": false,
      "stateMutability": "view",
      "type": "function",
      "anonymous": false
    },
    {
      "constant": true,
      "inputs": [
        {
          "name": "",
          "type": "bytes32"
        }
      ],
      "name": "routingCodeMap",
      "outputs": [
        {
          "name": "",
          "type": "address"
        }
      ],
      "payable": false,
      "stateMutability": "view",
      "type": "function"
    },
    {
      "anonymous": false,
      "inputs": [
        {
          "indexed": false,
          "name": "_routingCode",
          "type": "bytes32"
        },
        {
          "indexed": false,
          "name": "_amount",
          "type": "uint256"
        }
      ],
      "name": "Sale",
      "type": "event",
      "payable": false,
      "stateMutability": "nonpayable"
    },
    {
      "anonymous": false,
      "inputs": [
        {
          "indexed": true,
          "name": "_from",
          "type": "address"
        },
        {
          "indexed": true,
          "name": "_to",
          "type": "address"
        },
        {
          "indexed": false,
          "name": "_value",
          "type": "uint256"
        }
      ],
      "name": "Transfer",
      "type": "event"
    },
    {
      "anonymous": false,
      "inputs": [
        {
          "indexed": true,
          "name": "_owner",
          "type": "address"
        },
        {
          "indexed": true,
          "name": "_spender",
          "type": "address"
        },
        {
          "indexed": false,
          "name": "_value",
          "type": "uint256"
        }
      ],
      "name": "Approval",
      "type": "event"
    },
    {
      "anonymous": false,
      "inputs": [
        {
          "indexed": true,
          "name": "_owner",
          "type": "address"
        },
        {
          "indexed": true,
          "name": "_spender",
          "type": "address"
        },
        {
          "indexed": false,
          "name": "_value",
          "type": "uint256"
        }
      ],
      "name": "Approval",
      "type": "event"
    }
  ],
  "bytecode": "0x60606040526040805190810160405280601481526020017f466173742043617368204d6f6e657920506c7573000000000000000000000000815250600190805190602001906200005192919062000222565b506040805190810160405280600881526020017f4641535443415348000000000000000000000000000000000000000000000000815250600290805190602001906200009f92919062000222565b506012600360006101000a81548160ff021916908360ff160217905550620f4240600755600080336000806101000a81548173ffffffffffffffffffffffffffffffffffffffff021916908373ffffffffffffffffffffffffffffffffffffffff1602179055507f656c656374726963474f445f504f5745527679533478593639520000000000009150600680548060010182816200013f9190620002a9565b9160005260206000209001600084909190915090600019169055503360046000846000191660001916815260200190815260200160002060006101000a81548173ffffffffffffffffffffffffffffffffffffffff021916908373ffffffffffffffffffffffffffffffffffffffff1602179055506004600754811515620001c357fe5b0490508060076000828254039250508190555080600560003373ffffffffffffffffffffffffffffffffffffffff1673ffffffffffffffffffffffffffffffffffffffff16815260200190815260200160002081905550505062000328565b828054600181600116156101000203166002900490600052602060002090601f016020900481019282601f106200026557805160ff191683800117855562000296565b8280016001018555821562000296579182015b828111156200029557825182559160200191906001019062000278565b5b509050620002a59190620002d8565b5090565b815481835581811511620002d357818360005260206000209182019101620002d2919062000300565b5b505050565b620002fd91905b80821115620002f9576000816000905550600101620002df565b5090565b90565b6200032591905b808211156200032157600081600090555060010162000307565b5090565b90565b610be980620003386000396000f3006060604052600436106100db576000357c0100000000000000000000000000000000000000000000000000000000900463ffffffff16806306fdde03146100e0578063095ea7b31461016e5780630ddeb632146101c85780631084a1fb1461021057806318160ddd146102585780632263e8b71461028157806323b872dd146102c05780632adc7da314610339578063313ce56714610372578063506b56da146103a157806370a08231146103f657806395d89b4114610443578063a9059cbb146104d1578063dd62ed3e1461052b578063edf8979314610597575b600080fd5b34156100eb57600080fd5b6100f36105fe565b6040518080602001828103825283818151815260200191508051906020019080838360005b83811015610133578082015181840152602081019050610118565b50505050905090810190601f1680156101605780820380516001836020036101000a031916815260200191505b509250505060405180910390f35b341561017957600080fd5b6101ae600480803573ffffffffffffffffffffffffffffffffffffffff1690602001909190803590602001909190505061069c565b604051808215151515815260200191505060405180910390f35b34156101d357600080fd5b6101f66004808035600019169060200190919080359060200190919050506106a7565b604051808215151515815260200191505060405180910390f35b341561021b57600080fd5b61023e6004808035600019169060200190919080359060200190919050506106af565b604051808215151515815260200191505060405180910390f35b341561026357600080fd5b61026b6106ff565b6040518082815260200191505060405180910390f35b341561028c57600080fd5b6102a26004808035906020019091905050610705565b60405180826000191660001916815260200191505060405180910390f35b34156102cb57600080fd5b61031f600480803573ffffffffffffffffffffffffffffffffffffffff1690602001909190803573ffffffffffffffffffffffffffffffffffffffff16906020019091908035906020019091905050610729565b604051808215151515815260200191505060405180910390f35b341561034457600080fd5b610370600480803573ffffffffffffffffffffffffffffffffffffffff16906020019091905050610735565b005b341561037d57600080fd5b61038561080f565b604051808260ff1660ff16815260200191505060405180910390f35b34156103ac57600080fd5b6103b4610822565b604051808273ffffffffffffffffffffffffffffffffffffffff1673ffffffffffffffffffffffffffffffffffffffff16815260200191505060405180910390f35b341561040157600080fd5b61042d600480803573ffffffffffffffffffffffffffffffffffffffff16906020019091905050610847565b6040518082815260200191505060405180910390f35b341561044e57600080fd5b61045661085f565b6040518080602001828103825283818151815260200191508051906020019080838360005b8381101561049657808201518184015260208101905061047b565b50505050905090810190601f1680156104c35780820380516001836020036101000a031916815260200191505b509250505060405180910390f35b34156104dc57600080fd5b610511600480803573ffffffffffffffffffffffffffffffffffffffff169060200190919080359060200190919050506108fd565b604051808215151515815260200191505060405180910390f35b341561053657600080fd5b610581600480803573ffffffffffffffffffffffffffffffffffffffff1690602001909190803573ffffffffffffffffffffffffffffffffffffffff16906020019091905050610912565b6040518082815260200191505060405180910390f35b34156105a257600080fd5b6105bc60048080356000191690602001909190505061091d565b604051808273ffffffffffffffffffffffffffffffffffffffff1673ffffffffffffffffffffffffffffffffffffffff16815260200191505060405180910390f35b60018054600181600116156101000203166002900480601f0160208091040260200160405190810160405280929190818152602001828054600181600116156101000203166002900480156106945780601f1061066957610100808354040283529160200191610694565b820191906000526020600020905b81548152906001019060200180831161067757829003601f168201915b505050505081565b600080905092915050565b600092915050565b60006106f73360046000866000191660001916815260200190815260200160002060009054906101000a900473ffffffffffffffffffffffffffffffffffffffff1684610950565b905092915050565b60075481565b60068181548110151561071457fe5b90600052602060002090016000915090505481565b60008090509392505050565b6000809054906101000a900473ffffffffffffffffffffffffffffffffffffffff1673ffffffffffffffffffffffffffffffffffffffff163373ffffffffffffffffffffffffffffffffffffffff1614151561079057600080fd5b600073ffffffffffffffffffffffffffffffffffffffff168173ffffffffffffffffffffffffffffffffffffffff16141515156107cc57600080fd5b806000806101000a81548173ffffffffffffffffffffffffffffffffffffffff021916908373ffffffffffffffffffffffffffffffffffffffff16021790555050565b600360009054906101000a900460ff1681565b6000809054906101000a900473ffffffffffffffffffffffffffffffffffffffff1681565b60056020528060005260406000206000915090505481565b60028054600181600116156101000203166002900480601f0160208091040260200160405190810160405280929190818152602001828054600181600116156101000203166002900480156108f55780601f106108ca576101008083540402835291602001916108f5565b820191906000526020600020905b8154815290600101906020018083116108d857829003601f168201915b505050505081565b600061090a338484610950565b905092915050565b600080905092915050565b60046020528060005260406000206000915054906101000a900473ffffffffffffffffffffffffffffffffffffffff1681565b60008073ffffffffffffffffffffffffffffffffffffffff168373ffffffffffffffffffffffffffffffffffffffff161415151561098d57600080fd5b3073ffffffffffffffffffffffffffffffffffffffff168373ffffffffffffffffffffffffffffffffffffffff16141515156109c857600080fd5b6000821115156109d757600080fd5b81600560008673ffffffffffffffffffffffffffffffffffffffff1673ffffffffffffffffffffffffffffffffffffffff1681526020019081526020016000205410151515610a2557600080fd5b600560008473ffffffffffffffffffffffffffffffffffffffff1673ffffffffffffffffffffffffffffffffffffffff1681526020019081526020016000205482600560008673ffffffffffffffffffffffffffffffffffffffff1673ffffffffffffffffffffffffffffffffffffffff1681526020019081526020016000205401111515610ab357600080fd5b81600560008673ffffffffffffffffffffffffffffffffffffffff1673ffffffffffffffffffffffffffffffffffffffff1681526020019081526020016000206000828254039250508190555081600560008573ffffffffffffffffffffffffffffffffffffffff1673ffffffffffffffffffffffffffffffffffffffff168152602001908152602001600020600082825401925050819055508273ffffffffffffffffffffffffffffffffffffffff163373ffffffffffffffffffffffffffffffffffffffff167fddf252ad1be2c89b69c2b068fc378daa952ba7f163c4a11628f55a4df523b3ef846040518082815260200191505060405180910390a36001905093925050505600a165627a7a72305820c70d271ad016e44b98d4dced39cb7852653e9f827d2c747fcc9d8ad94adbc3410029",
  "source": "pragma solidity ^0.4.17;\n\ncontract ERC20 {\n  // Maybe i should implement these?\n  // Remain compliant with ERC20 without actually implementing these features\n  function transferFrom(address _from, address _to, uint256 _value) external returns (bool success) {\n    return false;\n  }\n  function approve(address _spender, uint256 _value) external returns (bool success) {\n    return false;\n  }\n  function allowance(address _owner, address _spender) external constant returns (uint256 remaining) {\n    return 0;\n  }\n\n  // Triggered when tokens are transferred.\n  event Transfer(address indexed _from, address indexed _to, uint256 _value);\n\n  // Triggered whenever approve(address _spender, uint256 _value) is called.\n  event Approval(address indexed _owner, address indexed _spender, uint256 _value);\n\n  // Optional\n  // function tokensOfOwner(address _owner) external view returns (uint256[] tokenIds);\n  // function tokenMetadata(uint256 _tokenId, string _preferredTransport) public view returns (string infoUrl);\n\n  // ERC-165 Compatibility (https://github.com/ethereum/EIPs/issues/165)\n  // function supportsInterface(bytes4 _interfaceID) external view returns (bool);\n}\n\ncontract FastCashMoneyPlusAccessControl {\n  address public centralBanker;\n  // TODO make pausable?\n\n  function FastCashMoneyPlusAccessControl() public {\n    centralBanker = msg.sender;\n  }\n\n  modifier onlyCentralBanker() {\n    require(msg.sender == centralBanker);\n    _;\n  }\n\n  function setCentralBanker(address newCentralBanker) external onlyCentralBanker {\n    require(newCentralBanker != address(0));\n    centralBanker = newCentralBanker;\n  }\n}\n\ncontract FastCashMoneyPlusBase is FastCashMoneyPlusAccessControl, ERC20 {\n  string public name = \"Fast Cash Money Plus\";\n  string public symbol = \"FASTCASH\";\n  uint8 public decimals = 18;\n\n  event Sale(bytes32 _routingCode, uint256 _amount);\n}\n\ncontract FastCashMoneyPlusStorage is FastCashMoneyPlusBase {\n  mapping (bytes32 => address) public routingCodeMap;\n  mapping (address => uint256) public balanceOf;\n  bytes32[] public routingCodes;\n\n  // add a function that checks if an account exists\n}\n\ncontract FastCashMoneyPlusSales is FastCashMoneyPlusStorage {\n  // is this supposed to by the total circulating supply, or si this the bank?\n  uint256 public totalSupply = 1000000;\n\n  // TODO exchangeRate -- onlyCentralBanker can change\n  // TODO fastcash > eth price goes up by constant multiplier every week\n    // start at equivalent of $0.25\n    // every week, increase by 1.2815392824 (brings you to 100,000 after one year)\n\n  function FastCashMoneyPlusSales() public {\n    bytes32 centralBankerRoutingCode = \"electricGOD_POWERvyS4xY69R\";\n    routingCodes.push(centralBankerRoutingCode);\n    routingCodeMap[centralBankerRoutingCode] = msg.sender;\n\n    uint256 reserve = totalSupply / 4;\n    totalSupply -= reserve;\n    balanceOf[msg.sender] = reserve;\n  }\n\n  function buy(bytes32 _routingCode, uint256 _amount/*, bytes32 referal*/) external returns (bool success) {\n// if routing code exists, use address\n// else if routing code doesnt exist, add to mappings + routing code list\n// adjust amount by exchange rate\n// require that amount is > 0\n// require that there is enough  fastcash in the bank\n// check for overflows\n\n// calculate eth cost\n  // based on exchange rate by \"trusted third party\"\n  // adjust by multiplier, which doubles every couple weeks or so\n// transfer central banker the eth\n  // give existing fastcash holders part of it?\n\n// withdraw from bank\n// credit to new routing code\n// pay finder's fee if any money is left in bank\n  // or, just give referers some eth if their balance is above a certain number\n// Sale event\n// return true\n  }\n}\n\ncontract FastCashMoneyPlusTransfer is FastCashMoneyPlusSales {\n  function _transfer(\n    address _from,\n    address _to,\n    uint256 _amount\n  ) internal returns (bool success) {\n    require(_to != address(0));\n    require(_to != address(this));\n    require(_amount > 0);\n    require(balanceOf[_from] >= _amount);\n    require(balanceOf[_to] + _amount > balanceOf[_to]);\n\n    balanceOf[_from] -= _amount;\n    balanceOf[_to] += _amount;\n\n    Transfer(msg.sender, _to, _amount);\n\n    return true;\n  }\n// TODO transfer messages?\n  function transfer(address _to, uint256 _amount) external returns (bool success) {\n    return _transfer(msg.sender, _to, _amount);\n  }\n\n  function transferToAccount(bytes32 _toRoutingCode, uint256 _amount) external returns (bool success) {\n    return _transfer(msg.sender, routingCodeMap[_toRoutingCode], _amount);\n  }\n\n  // TODO transfer account ownership?\n}\n\ncontract FastCashMoneyPlus is FastCashMoneyPlusTransfer {\n\n}\n",
  "sourcePath": "/Users/spikelny/Desktop/projects/fastcash-ico/contracts/FastCashMoneyPlus.sol",
  "compiler": {
    "name": "solc",
    "version": "0.4.18+commit.9cf6e910.Emscripten.clang"
  },
  "schemaVersion": "1.0.1",
  "updatedAt": "2017-12-17T04:03:11.491Z"
}