{
  "contractName": "FastCashMoneyPlusTransfer",
  "abi": [
    {
      "constant": true,
      "inputs": [],
      "name": "creationDate",
      "outputs": [
        {
          "name": "",
          "type": "uint256"
        }
      ],
      "payable": false,
      "stateMutability": "view",
      "type": "function"
    },
    {
      "constant": true,
      "inputs": [],
      "name": "name",
      "outputs": [
        {
          "name": "",
          "type": "string"
        }
      ],
      "payable": false,
      "stateMutability": "view",
      "type": "function"
    },
    {
      "constant": false,
      "inputs": [
        {
          "name": "_spender",
          "type": "address"
        },
        {
          "name": "_value",
          "type": "uint256"
        }
      ],
      "name": "approve",
      "outputs": [
        {
          "name": "success",
          "type": "bool"
        }
      ],
      "payable": false,
      "stateMutability": "nonpayable",
      "type": "function"
    },
    {
      "constant": false,
      "inputs": [
        {
          "name": "_toRoutingCode",
          "type": "bytes32"
        },
        {
          "name": "_amount",
          "type": "uint256"
        }
      ],
      "name": "transferToAccount",
      "outputs": [
        {
          "name": "success",
          "type": "bool"
        }
      ],
      "payable": false,
      "stateMutability": "nonpayable",
      "type": "function"
    },
    {
      "constant": false,
      "inputs": [],
      "name": "weeksFromCreation",
      "outputs": [
        {
          "name": "",
          "type": "uint256"
        }
      ],
      "payable": false,
      "stateMutability": "nonpayable",
      "type": "function"
    },
    {
      "constant": true,
      "inputs": [],
      "name": "totalSupply",
      "outputs": [
        {
          "name": "",
          "type": "uint256"
        }
      ],
      "payable": false,
      "stateMutability": "view",
      "type": "function"
    },
    {
      "constant": true,
      "inputs": [
        {
          "name": "",
          "type": "uint256"
        }
      ],
      "name": "routingCodes",
      "outputs": [
        {
          "name": "",
          "type": "bytes32"
        }
      ],
      "payable": false,
      "stateMutability": "view",
      "type": "function"
    },
    {
      "constant": false,
      "inputs": [
        {
          "name": "_from",
          "type": "address"
        },
        {
          "name": "_to",
          "type": "address"
        },
        {
          "name": "_amount",
          "type": "uint256"
        }
      ],
      "name": "transferFrom",
      "outputs": [
        {
          "name": "success",
          "type": "bool"
        }
      ],
      "payable": false,
      "stateMutability": "nonpayable",
      "type": "function"
    },
    {
      "constant": false,
      "inputs": [],
      "name": "totalInvestors",
      "outputs": [
        {
          "name": "",
          "type": "uint256"
        }
      ],
      "payable": false,
      "stateMutability": "nonpayable",
      "type": "function"
    },
    {
      "constant": false,
      "inputs": [
        {
          "name": "newCentralBanker",
          "type": "address"
        }
      ],
      "name": "setCentralBanker",
      "outputs": [],
      "payable": false,
      "stateMutability": "nonpayable",
      "type": "function"
    },
    {
      "constant": true,
      "inputs": [],
      "name": "decimals",
      "outputs": [
        {
          "name": "",
          "type": "uint8"
        }
      ],
      "payable": false,
      "stateMutability": "view",
      "type": "function"
    },
    {
      "constant": false,
      "inputs": [],
      "name": "getCurrentExchangeRate",
      "outputs": [
        {
          "name": "",
          "type": "uint256"
        }
      ],
      "payable": false,
      "stateMutability": "nonpayable",
      "type": "function"
    },
    {
      "constant": true,
      "inputs": [],
      "name": "centralBanker",
      "outputs": [
        {
          "name": "",
          "type": "address"
        }
      ],
      "payable": false,
      "stateMutability": "view",
      "type": "function"
    },
    {
      "constant": true,
      "inputs": [],
      "name": "USDWEI",
      "outputs": [
        {
          "name": "",
          "type": "uint256"
        }
      ],
      "payable": false,
      "stateMutability": "view",
      "type": "function"
    },
    {
      "constant": false,
      "inputs": [
        {
          "name": "_routingCode",
          "type": "bytes32"
        },
        {
          "name": "_referal",
          "type": "bytes32"
        }
      ],
      "name": "buy",
      "outputs": [],
      "payable": true,
      "stateMutability": "payable",
      "type": "function"
    },
    {
      "constant": true,
      "inputs": [],
      "name": "referalBonus",
      "outputs": [
        {
          "name": "",
          "type": "uint256"
        }
      ],
      "payable": false,
      "stateMutability": "view",
      "type": "function"
    },
    {
      "constant": true,
      "inputs": [
        {
          "name": "",
          "type": "address"
        }
      ],
      "name": "balanceOf",
      "outputs": [
        {
          "name": "",
          "type": "uint256"
        }
      ],
      "payable": false,
      "stateMutability": "view",
      "type": "function"
    },
    {
      "constant": false,
      "inputs": [
        {
          "name": "routingCode",
          "type": "bytes32"
        }
      ],
      "name": "balanceOfRoutingCode",
      "outputs": [
        {
          "name": "",
          "type": "uint256"
        }
      ],
      "payable": false,
      "stateMutability": "nonpayable",
      "type": "function"
    },
    {
      "constant": true,
      "inputs": [],
      "name": "symbol",
      "outputs": [
        {
          "name": "",
          "type": "string"
        }
      ],
      "payable": false,
      "stateMutability": "view",
      "type": "function"
    },
    {
      "constant": false,
      "inputs": [
        {
          "name": "_to",
          "type": "address"
        },
        {
          "name": "_amount",
          "type": "uint256"
        }
      ],
      "name": "transfer",
      "outputs": [
        {
          "name": "success",
          "type": "bool"
        }
      ],
      "payable": false,
      "stateMutability": "nonpayable",
      "type": "function"
    },
    {
      "constant": false,
      "inputs": [
        {
          "name": "_wei",
          "type": "uint256"
        }
      ],
      "name": "updateUSDWEI",
      "outputs": [
        {
          "name": "success",
          "type": "bool"
        }
      ],
      "payable": false,
      "stateMutability": "nonpayable",
      "type": "function"
    },
    {
      "constant": false,
      "inputs": [
        {
          "name": "_routingCode",
          "type": "bytes32"
        },
        {
          "name": "_to",
          "type": "address"
        }
      ],
      "name": "transferRoutingCode",
      "outputs": [
        {
          "name": "success",
          "type": "bool"
        }
      ],
      "payable": false,
      "stateMutability": "nonpayable",
      "type": "function"
    },
    {
      "constant": false,
      "inputs": [
        {
          "name": "_routingCode",
          "type": "bytes32"
        }
      ],
      "name": "createRoutingCode",
      "outputs": [
        {
          "name": "success",
          "type": "bool"
        }
      ],
      "payable": false,
      "stateMutability": "nonpayable",
      "type": "function"
    },
    {
      "constant": true,
      "inputs": [
        {
          "name": "_owner",
          "type": "address"
        },
        {
          "name": "_spender",
          "type": "address"
        }
      ],
      "name": "allowance",
      "outputs": [
        {
          "name": "remaining",
          "type": "uint256"
        }
      ],
      "payable": false,
      "stateMutability": "view",
      "type": "function"
    },
    {
      "constant": false,
      "inputs": [
        {
          "name": "_week",
          "type": "uint256"
        },
        {
          "name": "_value",
          "type": "uint256"
        },
        {
          "name": "_usdwei",
          "type": "uint256"
        }
      ],
      "name": "getExchangeRate",
      "outputs": [
        {
          "name": "",
          "type": "uint256"
        }
      ],
      "payable": false,
      "stateMutability": "nonpayable",
      "type": "function"
    },
    {
      "constant": false,
      "inputs": [
        {
          "name": "_newBonus",
          "type": "uint256"
        }
      ],
      "name": "updateReferalBonus",
      "outputs": [
        {
          "name": "success",
          "type": "bool"
        }
      ],
      "payable": false,
      "stateMutability": "nonpayable",
      "type": "function"
    },
    {
      "constant": true,
      "inputs": [
        {
          "name": "",
          "type": "bytes32"
        }
      ],
      "name": "routingCodeMap",
      "outputs": [
        {
          "name": "",
          "type": "address"
        }
      ],
      "payable": false,
      "stateMutability": "view",
      "type": "function"
    },
    {
      "payable": true,
      "stateMutability": "payable",
      "type": "fallback"
    },
    {
      "anonymous": false,
      "inputs": [
        {
          "indexed": true,
          "name": "_from",
          "type": "address"
        },
        {
          "indexed": true,
          "name": "_to",
          "type": "address"
        },
        {
          "indexed": false,
          "name": "_value",
          "type": "uint256"
        }
      ],
      "name": "Transfer",
      "type": "event"
    },
    {
      "anonymous": false,
      "inputs": [
        {
          "indexed": false,
          "name": "_address",
          "type": "address"
        },
        {
          "indexed": false,
          "name": "_amount",
          "type": "uint256"
        }
      ],
      "name": "Sale",
      "type": "event"
    },
    {
      "anonymous": false,
      "inputs": [
        {
          "indexed": true,
          "name": "_owner",
          "type": "address"
        },
        {
          "indexed": true,
          "name": "_spender",
          "type": "address"
        },
        {
          "indexed": false,
          "name": "_value",
          "type": "uint256"
        }
      ],
      "name": "Approval",
      "type": "event"
    }
  ],
  "bytecode": "0x60606040526040805190810160405280601481526020017f466173742043617368204d6f6e657920506c7573000000000000000000000000815250600190805190602001906200005192919062000231565b506040805190810160405280600881526020017f4641535443415348000000000000000000000000000000000000000000000000815250600290805190602001906200009f92919062000231565b506012600360006101000a81548160ff021916908360ff1602179055506605543df729c000600955600a600b556000336000806101000a81548173ffffffffffffffffffffffffffffffffffffffff021916908373ffffffffffffffffffffffffffffffffffffffff160217905550600360009054906101000a900460ff1660ff16600a0a620f4240026008819055507f656c656374726963474f445f504f574552767953347859363952000000000000905060068054806001018281620001689190620002b8565b9160005260206000209001600083909190915090600019169055503360046000836000191660001916815260200190815260200160002060006101000a81548173ffffffffffffffffffffffffffffffffffffffff021916908373ffffffffffffffffffffffffffffffffffffffff160217905550600854600560003373ffffffffffffffffffffffffffffffffffffffff1673ffffffffffffffffffffffffffffffffffffffff1681526020019081526020016000208190555042600a819055505062000337565b828054600181600116156101000203166002900490600052602060002090601f016020900481019282601f106200027457805160ff1916838001178555620002a5565b82800160010185558215620002a5579182015b82811115620002a457825182559160200191906001019062000287565b5b509050620002b49190620002e7565b5090565b815481835581811511620002e257818360005260206000209182019101620002e191906200030f565b5b505050565b6200030c91905b8082111562000308576000816000905550600101620002ee565b5090565b90565b6200033491905b808211156200033057600081600090555060010162000316565b5090565b90565b611bb580620003476000396000f30060606040526004361061015f576000357c0100000000000000000000000000000000000000000000000000000000900463ffffffff16806305b344101461016a57806306fdde0314610193578063095ea7b3146102215780631084a1fb1461027b57806317a7cd10146102c357806318160ddd146102ec5780632263e8b71461031557806323b872dd1461035457806329b8caff146103cd5780632adc7da3146103f6578063313ce5671461042f5780633ca967f31461045e578063506b56da1461048757806354fbde65146104dc57806359c8d6471461050557806363e0f8c71461052e57806370a08231146105575780637139b1ca146105a457806395d89b41146105df578063a9059cbb1461066d578063d5667d8a146106c7578063d9ca0b7f14610702578063dbeab27514610760578063dd62ed3e1461079f578063eccd8e0d1461080b578063edb649de14610854578063edf897931461088f575b6101676108f6565b50005b341561017557600080fd5b61017d610b26565b6040518082815260200191505060405180910390f35b341561019e57600080fd5b6101a6610b2c565b6040518080602001828103825283818151815260200191508051906020019080838360005b838110156101e65780820151818401526020810190506101cb565b50505050905090810190601f1680156102135780820380516001836020036101000a031916815260200191505b509250505060405180910390f35b341561022c57600080fd5b610261600480803573ffffffffffffffffffffffffffffffffffffffff16906020019091908035906020019091905050610bca565b604051808215151515815260200191505060405180910390f35b341561028657600080fd5b6102a9600480803560001916906020019091908035906020019091905050610cbc565b604051808215151515815260200191505060405180910390f35b34156102ce57600080fd5b6102d6610d0c565b6040518082815260200191505060405180910390f35b34156102f757600080fd5b6102ff610d26565b6040518082815260200191505060405180910390f35b341561032057600080fd5b6103366004808035906020019091905050610d2c565b60405180826000191660001916815260200191505060405180910390f35b341561035f57600080fd5b6103b3600480803573ffffffffffffffffffffffffffffffffffffffff1690602001909190803573ffffffffffffffffffffffffffffffffffffffff16906020019091908035906020019091905050610d50565b604051808215151515815260200191505060405180910390f35b34156103d857600080fd5b6103e0610e92565b6040518082815260200191505060405180910390f35b341561040157600080fd5b61042d600480803573ffffffffffffffffffffffffffffffffffffffff16906020019091905050610e9f565b005b341561043a57600080fd5b610442610f79565b604051808260ff1660ff16815260200191505060405180910390f35b341561046957600080fd5b610471610f8c565b6040518082815260200191505060405180910390f35b341561049257600080fd5b61049a610fae565b604051808273ffffffffffffffffffffffffffffffffffffffff1673ffffffffffffffffffffffffffffffffffffffff16815260200191505060405180910390f35b34156104e757600080fd5b6104ef610fd3565b6040518082815260200191505060405180910390f35b61052c60048080356000191690602001909190803560001916906020019091905050610fd9565b005b341561053957600080fd5b610541611308565b6040518082815260200191505060405180910390f35b341561056257600080fd5b61058e600480803573ffffffffffffffffffffffffffffffffffffffff1690602001909190505061130e565b6040518082815260200191505060405180910390f35b34156105af57600080fd5b6105c9600480803560001916906020019091905050611326565b6040518082815260200191505060405180910390f35b34156105ea57600080fd5b6105f26113af565b6040518080602001828103825283818151815260200191508051906020019080838360005b83811015610632578082015181840152602081019050610617565b50505050905090810190601f16801561065f5780820380516001836020036101000a031916815260200191505b509250505060405180910390f35b341561067857600080fd5b6106ad600480803573ffffffffffffffffffffffffffffffffffffffff1690602001909190803590602001909190505061144d565b604051808215151515815260200191505060405180910390f35b34156106d257600080fd5b6106e86004808035906020019091905050611462565b604051808215151515815260200191505060405180910390f35b341561070d57600080fd5b61074660048080356000191690602001909190803573ffffffffffffffffffffffffffffffffffffffff169060200190919050506114cf565b604051808215151515815260200191505060405180910390f35b341561076b57600080fd5b6107856004808035600019169060200190919050506115af565b604051808215151515815260200191505060405180910390f35b34156107aa57600080fd5b6107f5600480803573ffffffffffffffffffffffffffffffffffffffff1690602001909190803573ffffffffffffffffffffffffffffffffffffffff16906020019091905050611706565b6040518082815260200191505060405180910390f35b341561081657600080fd5b61083e600480803590602001909190803590602001909190803590602001909190505061178d565b6040518082815260200191505060405180910390f35b341561085f57600080fd5b610875600480803590602001909190505061182b565b604051808215151515815260200191505060405180910390f35b341561089a57600080fd5b6108b4600480803560001916906020019091905050611898565b604051808273ffffffffffffffffffffffffffffffffffffffff1673ffffffffffffffffffffffffffffffffffffffff16815260200191505060405180910390f35b600080600080610904610d0c565b9250349150610916838360095461178d565b905060008111151561092757600080fd5b80600560008060009054906101000a900473ffffffffffffffffffffffffffffffffffffffff1673ffffffffffffffffffffffffffffffffffffffff1673ffffffffffffffffffffffffffffffffffffffff168152602001908152602001600020541015151561099657600080fd5b80600560003373ffffffffffffffffffffffffffffffffffffffff1673ffffffffffffffffffffffffffffffffffffffff1681526020019081526020016000206000828254019250508190555080600560008060009054906101000a900473ffffffffffffffffffffffffffffffffffffffff1673ffffffffffffffffffffffffffffffffffffffff1673ffffffffffffffffffffffffffffffffffffffff168152602001908152602001600020600082825403925050819055506000809054906101000a900473ffffffffffffffffffffffffffffffffffffffff1673ffffffffffffffffffffffffffffffffffffffff166108fc349081150290604051600060405180830381858888f193505050501515610ab257600080fd5b7fc6851889326b4ff916523ef06f539b4cf0b81d78fc6e0f97c30e6223d18319903382604051808373ffffffffffffffffffffffffffffffffffffffff1673ffffffffffffffffffffffffffffffffffffffff1681526020018281526020019250505060405180910390a180935050505090565b600a5481565b60018054600181600116156101000203166002900480601f016020809104026020016040519081016040528092919081815260200182805460018160011615610100020316600290048015610bc25780601f10610b9757610100808354040283529160200191610bc2565b820191906000526020600020905b815481529060010190602001808311610ba557829003601f168201915b505050505081565b600081600760003373ffffffffffffffffffffffffffffffffffffffff1673ffffffffffffffffffffffffffffffffffffffff16815260200190815260200160002060008573ffffffffffffffffffffffffffffffffffffffff1673ffffffffffffffffffffffffffffffffffffffff168152602001908152602001600020819055508273ffffffffffffffffffffffffffffffffffffffff163373ffffffffffffffffffffffffffffffffffffffff167f8c5be1e5ebec7d5bd14f71427d1e84f3dd0314c0f7b2291e5b200ac8c7c3b925846040518082815260200191505060405180910390a36001905092915050565b6000610d043360046000866000191660001916815260200190815260200160002060009054906101000a900473ffffffffffffffffffffffffffffffffffffffff16846118cb565b905092915050565b600062093a80600a544203811515610d2057fe5b04905090565b60085481565b600681815481101515610d3b57fe5b90600052602060002090016000915090505481565b60008082600760008773ffffffffffffffffffffffffffffffffffffffff1673ffffffffffffffffffffffffffffffffffffffff16815260200190815260200160002060003373ffffffffffffffffffffffffffffffffffffffff1673ffffffffffffffffffffffffffffffffffffffff1681526020019081526020016000205410151515610dde57600080fd5b610de98585856118cb565b90508015610e805782600760008773ffffffffffffffffffffffffffffffffffffffff1673ffffffffffffffffffffffffffffffffffffffff16815260200190815260200160002060003373ffffffffffffffffffffffffffffffffffffffff1673ffffffffffffffffffffffffffffffffffffffff16815260200190815260200160002060008282540392505081905550610e89565b60009150610e8a565b5b509392505050565b6000600680549050905090565b6000809054906101000a900473ffffffffffffffffffffffffffffffffffffffff1673ffffffffffffffffffffffffffffffffffffffff163373ffffffffffffffffffffffffffffffffffffffff16141515610efa57600080fd5b600073ffffffffffffffffffffffffffffffffffffffff168173ffffffffffffffffffffffffffffffffffffffff1614151515610f3657600080fd5b806000806101000a81548173ffffffffffffffffffffffffffffffffffffffff021916908373ffffffffffffffffffffffffffffffffffffffff16021790555050565b600360009054906101000a900460ff1681565b600080610f97610d0c565b9050610fa88160095460095461178d565b91505090565b6000809054906101000a900473ffffffffffffffffffffffffffffffffffffffff1681565b60095481565b6000806000610fe66108f6565b9250600073ffffffffffffffffffffffffffffffffffffffff1660046000876000191660001916815260200190815260200160002060009054906101000a900473ffffffffffffffffffffffffffffffffffffffff1673ffffffffffffffffffffffffffffffffffffffff16141561106357611061856115af565b505b60007f01000000000000000000000000000000000000000000000000000000000000000284600060208110151561109657fe5b1a7f0100000000000000000000000000000000000000000000000000000000000000027effffffffffffffffffffffffffffffffffffffffffffffffffffffffffffff191614151561130157600b54838115156110ef57fe5b04600560008060009054906101000a900473ffffffffffffffffffffffffffffffffffffffff1673ffffffffffffffffffffffffffffffffffffffff1673ffffffffffffffffffffffffffffffffffffffff16815260200190815260200160002054111561116c57600b548381151561116457fe5b0491506111d0565b600560008060009054906101000a900473ffffffffffffffffffffffffffffffffffffffff1673ffffffffffffffffffffffffffffffffffffffff1673ffffffffffffffffffffffffffffffffffffffff1681526020019081526020016000205491505b60046000856000191660001916815260200190815260200160002060009054906101000a900473ffffffffffffffffffffffffffffffffffffffff169050600073ffffffffffffffffffffffffffffffffffffffff168173ffffffffffffffffffffffffffffffffffffffff161415156113005781600560008373ffffffffffffffffffffffffffffffffffffffff1673ffffffffffffffffffffffffffffffffffffffff1681526020019081526020016000206000828254019250508190555081600560008060009054906101000a900473ffffffffffffffffffffffffffffffffffffffff1673ffffffffffffffffffffffffffffffffffffffff1673ffffffffffffffffffffffffffffffffffffffff168152602001908152602001600020600082825403925050819055505b5b5050505050565b600b5481565b60056020528060005260406000206000915090505481565b60008060046000846000191660001916815260200190815260200160002060009054906101000a900473ffffffffffffffffffffffffffffffffffffffff169050600560008273ffffffffffffffffffffffffffffffffffffffff1673ffffffffffffffffffffffffffffffffffffffff16815260200190815260200160002054915050919050565b60028054600181600116156101000203166002900480601f0160208091040260200160405190810160405280929190818152602001828054600181600116156101000203166002900480156114455780601f1061141a57610100808354040283529160200191611445565b820191906000526020600020905b81548152906001019060200180831161142857829003601f168201915b505050505081565b600061145a3384846118cb565b905092915050565b60008060009054906101000a900473ffffffffffffffffffffffffffffffffffffffff1673ffffffffffffffffffffffffffffffffffffffff163373ffffffffffffffffffffffffffffffffffffffff161415156114bf57600080fd5b8160098190555060019050919050565b60008060046000856000191660001916815260200190815260200160002060009054906101000a900473ffffffffffffffffffffffffffffffffffffffff1690508073ffffffffffffffffffffffffffffffffffffffff163373ffffffffffffffffffffffffffffffffffffffff1614151561154a57600080fd5b8260046000866000191660001916815260200190815260200160002060006101000a81548173ffffffffffffffffffffffffffffffffffffffff021916908373ffffffffffffffffffffffffffffffffffffffff160217905550600191505092915050565b60008073ffffffffffffffffffffffffffffffffffffffff1660046000846000191660001916815260200190815260200160002060009054906101000a900473ffffffffffffffffffffffffffffffffffffffff1673ffffffffffffffffffffffffffffffffffffffff1614151561162657600080fd5b6000600560003373ffffffffffffffffffffffffffffffffffffffff1673ffffffffffffffffffffffffffffffffffffffff1681526020019081526020016000205411151561167457600080fd5b3360046000846000191660001916815260200190815260200160002060006101000a81548173ffffffffffffffffffffffffffffffffffffffff021916908373ffffffffffffffffffffffffffffffffffffffff160217905550600680548060010182816116e29190611b38565b91600052602060002090016000849091909150906000191690555060019050919050565b6000600760008473ffffffffffffffffffffffffffffffffffffffff1673ffffffffffffffffffffffffffffffffffffffff16815260200190815260200160002060008373ffffffffffffffffffffffffffffffffffffffff1673ffffffffffffffffffffffffffffffffffffffff16815260200190815260200160002054905092915050565b600080600080600080600060478a11156117aa57604795506117ae565b8995505b6000945060328611156117c2576032860394505b600a9350848401600360009054906101000a900460ff1660ff16870103925082600a0a60048a0202915084600a0a86600c0a8115156117fd57fe5b0484600a0a8981151561180c57fe5b04029050808281151561181b57fe5b0496505050505050509392505050565b60008060009054906101000a900473ffffffffffffffffffffffffffffffffffffffff1673ffffffffffffffffffffffffffffffffffffffff163373ffffffffffffffffffffffffffffffffffffffff1614151561188857600080fd5b81600b8190555060019050919050565b60046020528060005260406000206000915054906101000a900473ffffffffffffffffffffffffffffffffffffffff1681565b60008073ffffffffffffffffffffffffffffffffffffffff168373ffffffffffffffffffffffffffffffffffffffff161415151561190857600080fd5b3073ffffffffffffffffffffffffffffffffffffffff168373ffffffffffffffffffffffffffffffffffffffff161415151561194357600080fd5b60008211151561195257600080fd5b81600560008673ffffffffffffffffffffffffffffffffffffffff1673ffffffffffffffffffffffffffffffffffffffff16815260200190815260200160002054101515156119a057600080fd5b600560008473ffffffffffffffffffffffffffffffffffffffff1673ffffffffffffffffffffffffffffffffffffffff1681526020019081526020016000205482600560008673ffffffffffffffffffffffffffffffffffffffff1673ffffffffffffffffffffffffffffffffffffffff1681526020019081526020016000205401111515611a2e57600080fd5b81600560008673ffffffffffffffffffffffffffffffffffffffff1673ffffffffffffffffffffffffffffffffffffffff1681526020019081526020016000206000828254039250508190555081600560008573ffffffffffffffffffffffffffffffffffffffff1673ffffffffffffffffffffffffffffffffffffffff168152602001908152602001600020600082825401925050819055508273ffffffffffffffffffffffffffffffffffffffff163373ffffffffffffffffffffffffffffffffffffffff167fddf252ad1be2c89b69c2b068fc378daa952ba7f163c4a11628f55a4df523b3ef846040518082815260200191505060405180910390a3600190509392505050565b815481835581811511611b5f57818360005260206000209182019101611b5e9190611b64565b5b505050565b611b8691905b80821115611b82576000816000905550600101611b6a565b5090565b905600a165627a7a7230582072f12dd9a300520025d12357b7b106f8045e2851abc0123e254993cc08f8b1a70029",
  "source": "pragma solidity ^0.4.17;\n/*\n  Copyright 2017, FastCashMoneyPlus.biz\n\n  This is highly propriatary software. Under no circumstances is anyone, except for employees of\n  FastCashMoneyPlus.biz, authorized to modify, distribute, use, or otherwise profit from these\n  contracts. Anyone attempting to do so will be prosecuted under the full extent of the law.\n*/\n\ncontract FastCashMoneyPlusPermissions {\n  address public centralBanker;\n\n  function FastCashMoneyPlusPermissions() public {\n    centralBanker = msg.sender;\n  }\n\n  modifier onlyCentralBanker() {\n    require(msg.sender == centralBanker);\n    _;\n  }\n\n  function setCentralBanker(address newCentralBanker) external onlyCentralBanker {\n    require(newCentralBanker != address(0));\n    centralBanker = newCentralBanker;\n  }\n}\n\ncontract FastCashMoneyPlusBase is FastCashMoneyPlusPermissions {\n  string public name = \"Fast Cash Money Plus\";\n  string public symbol = \"FASTCASH\";\n  uint8 public decimals = 18;\n}\n\ncontract FastCashMoneyPlusStorage is FastCashMoneyPlusBase {\n  mapping (bytes32 => address) public routingCodeMap;\n  mapping (address => uint) public balanceOf;\n  bytes32[] public routingCodes;\n\n  function balanceOfRoutingCode(bytes32 routingCode) external returns (uint) {\n    address _address = routingCodeMap[routingCode];\n    return balanceOf[_address];\n  }\n\n  function totalInvestors() external returns (uint) {\n    return routingCodes.length;\n  }\n\n  function createRoutingCode(bytes32 _routingCode) public returns (bool success) {\n    require(routingCodeMap[_routingCode] == address(0));\n    require(balanceOf[msg.sender] > 0);\n\n    routingCodeMap[_routingCode] = msg.sender;\n    routingCodes.push(_routingCode);\n    return true;\n  }\n\n  // add a function that checks if an account exists\n}\n\n// Maintain ERC20 compliance -- allow other contracts to access accounts\ncontract FastCashMoneyPlusAccessControl is FastCashMoneyPlusStorage {\n  mapping (address => mapping (address => uint)) internal allowed;\n\n  event Approval(address indexed _owner, address indexed _spender, uint _value);\n\n  function approve(address _spender, uint _value) external returns (bool success) {\n    allowed[msg.sender][_spender] = _value;\n    Approval(msg.sender, _spender, _value);\n    return true;\n  }\n  function allowance(address _owner, address _spender) external constant returns (uint remaining) {\n    return allowed[_owner][_spender];\n  }\n}\n\ncontract FastCashMoneyPlusSales is FastCashMoneyPlusAccessControl {\n  uint256 public totalSupply;\n  uint public USDWEI = 1500000000000000;\n  uint public creationDate;\n  uint private constant oneWeek = 60 * 60 * 24 * 7;\n  uint public referalBonus = 10;\n\n  event Sale(address _address, uint _amount);\n\n  function FastCashMoneyPlusSales() public {\n    // need to adjust total supply by decimals\n    totalSupply = 1000000 * 10 ** uint256(decimals);\n\n    bytes32 centralBankerRoutingCode = \"electricGOD_POWERvyS4xY69R\";\n    routingCodes.push(centralBankerRoutingCode);\n    routingCodeMap[centralBankerRoutingCode] = msg.sender;\n\n    balanceOf[msg.sender] = totalSupply;\n    creationDate = now;\n  }\n\n  function updateUSDWEI(uint _wei) external onlyCentralBanker returns (bool success) {\n    USDWEI = _wei;\n    return true;\n  }\n\n  function updateReferalBonus(uint _newBonus) external onlyCentralBanker returns (bool success) {\n    referalBonus = _newBonus;\n    return true;\n  }\n\n  function weeksFromCreation() returns (uint) {\n    return (now - creationDate) / oneWeek;\n  }\n\n  function getExchangeRate(uint _week, uint _value, uint _usdwei) public returns (uint) {\n    uint __week;\n    if (_week > 71) {\n      __week = 71;\n    } else {\n      __week = _week;\n    }\n\n    uint extraAdj = 0;\n    if (__week > 50) {\n      extraAdj = __week - 50;\n    }\n\n    uint minAdj = 10;\n    uint x = __week + decimals - (minAdj + extraAdj);\n\n    uint n = _value * 4 * uint(10 ** x);\n    uint d = ( _usdwei / uint(10 ** minAdj) ) * (uint(12 ** __week) / uint(10 ** extraAdj));\n\n    return n / d;\n  }\n\n  function getCurrentExchangeRate() public returns (uint) {\n    uint _week = weeksFromCreation();\n    return getExchangeRate(_week, USDWEI, USDWEI);\n  }\n\n  function _makeSale() private returns (uint) {\n    uint _week = weeksFromCreation();\n    uint _value = msg.value;\n\n    uint moneyBucks = getExchangeRate(_week, _value, USDWEI);\n\n    require(moneyBucks > 0);\n    require(balanceOf[centralBanker] >= moneyBucks);\n\n    balanceOf[msg.sender] += moneyBucks;\n    balanceOf[centralBanker] -= moneyBucks;\n\n    centralBanker.transfer(msg.value);\n    Sale(msg.sender, moneyBucks);\n    return moneyBucks;\n  }\n\n  function buy(bytes32 _routingCode, bytes32 _referal) payable {\n    uint moneyBucks = _makeSale();\n\n    if (routingCodeMap[_routingCode] == address(0)) {\n      createRoutingCode(_routingCode);\n    }\n\n    if (_referal[0] != 0) {\n      uint referalFee;\n      if (balanceOf[centralBanker] > (moneyBucks / referalBonus)) {\n        referalFee = moneyBucks / referalBonus;\n      } else {\n        referalFee = balanceOf[centralBanker];\n      }\n      address reference = routingCodeMap[_referal];\n      if (reference != address(0)) {\n        balanceOf[reference] += referalFee;\n        balanceOf[centralBanker] -= referalFee;\n      }\n    }\n  }\n\n  function () payable {\n    _makeSale();\n  }\n}\n\ncontract FastCashMoneyPlusTransfer is FastCashMoneyPlusSales {\n  event Transfer(address indexed _from, address indexed _to, uint _value);\n\n  function _transfer(\n    address _from,\n    address _to,\n    uint _amount\n  ) internal returns (bool success) {\n    require(_to != address(0));\n    require(_to != address(this));\n    require(_amount > 0);\n    require(balanceOf[_from] >= _amount);\n    require(balanceOf[_to] + _amount > balanceOf[_to]);\n\n    balanceOf[_from] -= _amount;\n    balanceOf[_to] += _amount;\n\n    Transfer(msg.sender, _to, _amount);\n\n    return true;\n  }\n\n  function transfer(address _to, uint _amount) external returns (bool success) {\n    return _transfer(msg.sender, _to, _amount);\n  }\n\n  function transferFrom(address _from, address _to, uint _amount) external returns (bool success) {\n    require(allowed[_from][msg.sender] >= _amount);\n\n    bool tranferSuccess = _transfer(_from, _to, _amount);\n    if (tranferSuccess) {\n      allowed[_from][msg.sender] -= _amount;\n    } else {\n      return false;\n    }\n  }\n\n  function transferToAccount(bytes32 _toRoutingCode, uint _amount) external returns (bool success) {\n    return _transfer(msg.sender, routingCodeMap[_toRoutingCode], _amount);\n  }\n\n  // need to play around with this to figure out some of the specifics\n  function transferRoutingCode(bytes32 _routingCode, address _to) external returns (bool success) {\n    address owner = routingCodeMap[_routingCode];\n    require(msg.sender == owner);\n\n    routingCodeMap[_routingCode] = _to;\n    return true;\n  }\n}\n\ncontract FastCashMoneyPlus is FastCashMoneyPlusTransfer {\n\n}\n",
  "sourcePath": "/Users/spikelny/Desktop/projects/fastcash-ico/contracts/FastCashMoneyPlus.sol",
  "compiler": {
    "name": "solc",
    "version": "0.4.18+commit.9cf6e910.Emscripten.clang"
  },
  "schemaVersion": "1.0.1",
  "updatedAt": "2018-01-01T05:30:19.642Z"
}