{
  "contractName": "FastCashMoneyPlusStorage",
  "abi": [
    {
      "constant": true,
      "inputs": [],
      "name": "name",
      "outputs": [
        {
          "name": "",
          "type": "string"
        }
      ],
      "payable": false,
      "stateMutability": "view",
      "type": "function"
    },
    {
      "constant": true,
      "inputs": [
        {
          "name": "",
          "type": "uint256"
        }
      ],
      "name": "routingCodes",
      "outputs": [
        {
          "name": "",
          "type": "bytes32"
        }
      ],
      "payable": false,
      "stateMutability": "view",
      "type": "function"
    },
    {
      "constant": false,
      "inputs": [],
      "name": "totalInvestors",
      "outputs": [
        {
          "name": "",
          "type": "uint256"
        }
      ],
      "payable": false,
      "stateMutability": "nonpayable",
      "type": "function"
    },
    {
      "constant": false,
      "inputs": [
        {
          "name": "newCentralBanker",
          "type": "address"
        }
      ],
      "name": "setCentralBanker",
      "outputs": [],
      "payable": false,
      "stateMutability": "nonpayable",
      "type": "function"
    },
    {
      "constant": true,
      "inputs": [],
      "name": "decimals",
      "outputs": [
        {
          "name": "",
          "type": "uint8"
        }
      ],
      "payable": false,
      "stateMutability": "view",
      "type": "function"
    },
    {
      "constant": true,
      "inputs": [],
      "name": "centralBanker",
      "outputs": [
        {
          "name": "",
          "type": "address"
        }
      ],
      "payable": false,
      "stateMutability": "view",
      "type": "function"
    },
    {
      "constant": true,
      "inputs": [
        {
          "name": "",
          "type": "address"
        }
      ],
      "name": "balanceOf",
      "outputs": [
        {
          "name": "",
          "type": "uint256"
        }
      ],
      "payable": false,
      "stateMutability": "view",
      "type": "function"
    },
    {
      "constant": false,
      "inputs": [
        {
          "name": "routingCode",
          "type": "bytes32"
        }
      ],
      "name": "balanceOfRoutingCode",
      "outputs": [
        {
          "name": "",
          "type": "uint256"
        }
      ],
      "payable": false,
      "stateMutability": "nonpayable",
      "type": "function"
    },
    {
      "constant": true,
      "inputs": [],
      "name": "symbol",
      "outputs": [
        {
          "name": "",
          "type": "string"
        }
      ],
      "payable": false,
      "stateMutability": "view",
      "type": "function"
    },
    {
      "constant": false,
      "inputs": [
        {
          "name": "_routingCode",
          "type": "bytes32"
        }
      ],
      "name": "createRoutingCode",
      "outputs": [
        {
          "name": "success",
          "type": "bool"
        }
      ],
      "payable": false,
      "stateMutability": "nonpayable",
      "type": "function"
    },
    {
      "constant": true,
      "inputs": [
        {
          "name": "",
          "type": "bytes32"
        }
      ],
      "name": "routingCodeMap",
      "outputs": [
        {
          "name": "",
          "type": "address"
        }
      ],
      "payable": false,
      "stateMutability": "view",
      "type": "function"
    }
  ],
  "bytecode": "0x60606040526040805190810160405280601481526020017f466173742043617368204d6f6e657920506c75730000000000000000000000008152506001908051906020019061004f9291906100fd565b506040805190810160405280600881526020017f46415354434153480000000000000000000000000000000000000000000000008152506002908051906020019061009b9291906100fd565b506012600360006101000a81548160ff021916908360ff160217905550336000806101000a81548173ffffffffffffffffffffffffffffffffffffffff021916908373ffffffffffffffffffffffffffffffffffffffff1602179055506101a2565b828054600181600116156101000203166002900490600052602060002090601f016020900481019282601f1061013e57805160ff191683800117855561016c565b8280016001018555821561016c579182015b8281111561016b578251825591602001919060010190610150565b5b509050610179919061017d565b5090565b61019f91905b8082111561019b576000816000905550600101610183565b5090565b90565b61094a806101b16000396000f3006060604052600436106100af576000357c0100000000000000000000000000000000000000000000000000000000900463ffffffff16806306fdde03146100b45780632263e8b71461014257806329b8caff146101815780632adc7da3146101aa578063313ce567146101e3578063506b56da1461021257806370a08231146102675780637139b1ca146102b457806395d89b41146102ef578063dbeab2751461037d578063edf89793146103bc575b600080fd5b34156100bf57600080fd5b6100c7610423565b6040518080602001828103825283818151815260200191508051906020019080838360005b838110156101075780820151818401526020810190506100ec565b50505050905090810190601f1680156101345780820380516001836020036101000a031916815260200191505b509250505060405180910390f35b341561014d57600080fd5b61016360048080359060200190919050506104c1565b60405180826000191660001916815260200191505060405180910390f35b341561018c57600080fd5b6101946104e5565b6040518082815260200191505060405180910390f35b34156101b557600080fd5b6101e1600480803573ffffffffffffffffffffffffffffffffffffffff169060200190919050506104f2565b005b34156101ee57600080fd5b6101f66105cc565b604051808260ff1660ff16815260200191505060405180910390f35b341561021d57600080fd5b6102256105df565b604051808273ffffffffffffffffffffffffffffffffffffffff1673ffffffffffffffffffffffffffffffffffffffff16815260200191505060405180910390f35b341561027257600080fd5b61029e600480803573ffffffffffffffffffffffffffffffffffffffff16906020019091905050610604565b6040518082815260200191505060405180910390f35b34156102bf57600080fd5b6102d960048080356000191690602001909190505061061c565b6040518082815260200191505060405180910390f35b34156102fa57600080fd5b6103026106a5565b6040518080602001828103825283818151815260200191508051906020019080838360005b83811015610342578082015181840152602081019050610327565b50505050905090810190601f16801561036f5780820380516001836020036101000a031916815260200191505b509250505060405180910390f35b341561038857600080fd5b6103a2600480803560001916906020019091905050610743565b604051808215151515815260200191505060405180910390f35b34156103c757600080fd5b6103e160048080356000191690602001909190505061089a565b604051808273ffffffffffffffffffffffffffffffffffffffff1673ffffffffffffffffffffffffffffffffffffffff16815260200191505060405180910390f35b60018054600181600116156101000203166002900480601f0160208091040260200160405190810160405280929190818152602001828054600181600116156101000203166002900480156104b95780601f1061048e576101008083540402835291602001916104b9565b820191906000526020600020905b81548152906001019060200180831161049c57829003601f168201915b505050505081565b6006818154811015156104d057fe5b90600052602060002090016000915090505481565b6000600680549050905090565b6000809054906101000a900473ffffffffffffffffffffffffffffffffffffffff1673ffffffffffffffffffffffffffffffffffffffff163373ffffffffffffffffffffffffffffffffffffffff1614151561054d57600080fd5b600073ffffffffffffffffffffffffffffffffffffffff168173ffffffffffffffffffffffffffffffffffffffff161415151561058957600080fd5b806000806101000a81548173ffffffffffffffffffffffffffffffffffffffff021916908373ffffffffffffffffffffffffffffffffffffffff16021790555050565b600360009054906101000a900460ff1681565b6000809054906101000a900473ffffffffffffffffffffffffffffffffffffffff1681565b60056020528060005260406000206000915090505481565b60008060046000846000191660001916815260200190815260200160002060009054906101000a900473ffffffffffffffffffffffffffffffffffffffff169050600560008273ffffffffffffffffffffffffffffffffffffffff1673ffffffffffffffffffffffffffffffffffffffff16815260200190815260200160002054915050919050565b60028054600181600116156101000203166002900480601f01602080910402602001604051908101604052809291908181526020018280546001816001161561010002031660029004801561073b5780601f106107105761010080835404028352916020019161073b565b820191906000526020600020905b81548152906001019060200180831161071e57829003601f168201915b505050505081565b60008073ffffffffffffffffffffffffffffffffffffffff1660046000846000191660001916815260200190815260200160002060009054906101000a900473ffffffffffffffffffffffffffffffffffffffff1673ffffffffffffffffffffffffffffffffffffffff161415156107ba57600080fd5b6000600560003373ffffffffffffffffffffffffffffffffffffffff1673ffffffffffffffffffffffffffffffffffffffff1681526020019081526020016000205411151561080857600080fd5b3360046000846000191660001916815260200190815260200160002060006101000a81548173ffffffffffffffffffffffffffffffffffffffff021916908373ffffffffffffffffffffffffffffffffffffffff1602179055506006805480600101828161087691906108cd565b91600052602060002090016000849091909150906000191690555060019050919050565b60046020528060005260406000206000915054906101000a900473ffffffffffffffffffffffffffffffffffffffff1681565b8154818355818115116108f4578183600052602060002091820191016108f391906108f9565b5b505050565b61091b91905b808211156109175760008160009055506001016108ff565b5090565b905600a165627a7a72305820798b8d1ba2f9a4938857c6d0a41bda26b16f2c37bbcb1e381144226828c5d1ef0029",
  "source": "pragma solidity ^0.4.17;\n/*\n  Copyright 2017, FastCashMoneyPlus.biz\n\n  This is highly propriatary software. Under no circumstances is anyone, except for employees of\n  FastCashMoneyPlus.biz, authorized to modify, distribute, use, or otherwise profit from these\n  contracts. Anyone attempting to do so will be prosecuted under the full extent of the law.\n*/\n\ncontract FastCashMoneyPlusPermissions {\n  address public centralBanker;\n\n  function FastCashMoneyPlusPermissions() public {\n    centralBanker = msg.sender;\n  }\n\n  modifier onlyCentralBanker() {\n    require(msg.sender == centralBanker);\n    _;\n  }\n\n  function setCentralBanker(address newCentralBanker) external onlyCentralBanker {\n    require(newCentralBanker != address(0));\n    centralBanker = newCentralBanker;\n  }\n}\n\ncontract FastCashMoneyPlusBase is FastCashMoneyPlusPermissions {\n  string public name = \"Fast Cash Money Plus\";\n  string public symbol = \"FASTCASH\";\n  uint8 public decimals = 18;\n}\n\ncontract FastCashMoneyPlusStorage is FastCashMoneyPlusBase {\n  mapping (bytes32 => address) public routingCodeMap;\n  mapping (address => uint) public balanceOf;\n  bytes32[] public routingCodes;\n\n  function balanceOfRoutingCode(bytes32 routingCode) external returns (uint) {\n    address _address = routingCodeMap[routingCode];\n    return balanceOf[_address];\n  }\n\n  function totalInvestors() external returns (uint) {\n    return routingCodes.length;\n  }\n\n  function createRoutingCode(bytes32 _routingCode) public returns (bool success) {\n    require(routingCodeMap[_routingCode] == address(0));\n    require(balanceOf[msg.sender] > 0);\n\n    routingCodeMap[_routingCode] = msg.sender;\n    routingCodes.push(_routingCode);\n    return true;\n  }\n\n  // add a function that checks if an account exists\n}\n\n// Maintain ERC20 compliance -- allow other contracts to access accounts\ncontract FastCashMoneyPlusAccessControl is FastCashMoneyPlusStorage {\n  mapping (address => mapping (address => uint)) internal allowed;\n\n  event Approval(address indexed _owner, address indexed _spender, uint _value);\n\n  function approve(address _spender, uint _value) external returns (bool success) {\n    allowed[msg.sender][_spender] = _value;\n    Approval(msg.sender, _spender, _value);\n    return true;\n  }\n  function allowance(address _owner, address _spender) external constant returns (uint remaining) {\n    return allowed[_owner][_spender];\n  }\n}\n\ncontract FastCashMoneyPlusSales is FastCashMoneyPlusAccessControl {\n  uint256 public totalSupply;\n  uint public USDWEI = 1500000000000000;\n  uint public creationDate;\n  uint private constant oneWeek = 60 * 60 * 24 * 7;\n  uint public referalBonus = 10;\n\n  event Sale(address _address, uint _amount);\n\n  function FastCashMoneyPlusSales() public {\n    // need to adjust total supply by decimals\n    totalSupply = 1000000 * 10 ** uint256(decimals);\n\n    bytes32 centralBankerRoutingCode = \"electricGOD_POWERvyS4xY69R\";\n    routingCodes.push(centralBankerRoutingCode);\n    routingCodeMap[centralBankerRoutingCode] = msg.sender;\n\n    balanceOf[msg.sender] = totalSupply;\n    creationDate = now;\n  }\n\n  function updateUSDWEI(uint _wei) external onlyCentralBanker returns (bool success) {\n    USDWEI = _wei;\n    return true;\n  }\n\n  function updateReferalBonus(uint _newBonus) external onlyCentralBanker returns (bool success) {\n    referalBonus = _newBonus;\n    return true;\n  }\n\n  function weeksFromCreation() returns (uint) {\n    return (now - creationDate) / oneWeek;\n  }\n\n  function getExchangeRate(uint _week, uint _value, uint _usdwei) public returns (uint) {\n    uint __week;\n    if (_week > 71) {\n      __week = 71;\n    } else {\n      __week = _week;\n    }\n\n    uint extraAdj = 0;\n    if (__week > 50) {\n      extraAdj = __week - 50;\n    }\n\n    uint minAdj = 10;\n    uint x = __week + decimals - (minAdj + extraAdj);\n\n    uint n = _value * 4 * uint(10 ** x);\n    uint d = ( _usdwei / uint(10 ** minAdj) ) * (uint(12 ** __week) / uint(10 ** extraAdj));\n\n    return n / d;\n  }\n\n  function getCurrentExchangeRate() public returns (uint) {\n    uint _week = weeksFromCreation();\n    return getExchangeRate(_week, USDWEI, USDWEI);\n  }\n\n  function _makeSale() private returns (uint) {\n    uint _week = weeksFromCreation();\n    uint _value = msg.value;\n\n    uint moneyBucks = getExchangeRate(_week, _value, USDWEI);\n\n    require(moneyBucks > 0);\n    require(balanceOf[centralBanker] >= moneyBucks);\n\n    balanceOf[msg.sender] += moneyBucks;\n    balanceOf[centralBanker] -= moneyBucks;\n\n    centralBanker.transfer(msg.value);\n    Sale(msg.sender, moneyBucks);\n    return moneyBucks;\n  }\n\n  function buy(bytes32 _routingCode, bytes32 _referal) payable {\n    uint moneyBucks = _makeSale();\n\n    if (routingCodeMap[_routingCode] == address(0)) {\n      createRoutingCode(_routingCode);\n    }\n\n    if (_referal[0] != 0) {\n      uint referalFee;\n      if (balanceOf[centralBanker] > (moneyBucks / referalBonus)) {\n        referalFee = moneyBucks / referalBonus;\n      } else {\n        referalFee = balanceOf[centralBanker];\n      }\n      address reference = routingCodeMap[_referal];\n      if (reference != address(0)) {\n        balanceOf[reference] += referalFee;\n        balanceOf[centralBanker] -= referalFee;\n      }\n    }\n  }\n\n  function () payable {\n    _makeSale();\n  }\n}\n\ncontract FastCashMoneyPlusTransfer is FastCashMoneyPlusSales {\n  event Transfer(address indexed _from, address indexed _to, uint _value);\n\n  function _transfer(\n    address _from,\n    address _to,\n    uint _amount\n  ) internal returns (bool success) {\n    require(_to != address(0));\n    require(_to != address(this));\n    require(_amount > 0);\n    require(balanceOf[_from] >= _amount);\n    require(balanceOf[_to] + _amount > balanceOf[_to]);\n\n    balanceOf[_from] -= _amount;\n    balanceOf[_to] += _amount;\n\n    Transfer(msg.sender, _to, _amount);\n\n    return true;\n  }\n\n  function transfer(address _to, uint _amount) external returns (bool success) {\n    return _transfer(msg.sender, _to, _amount);\n  }\n\n  function transferFrom(address _from, address _to, uint _amount) external returns (bool success) {\n    require(allowed[_from][msg.sender] >= _amount);\n\n    bool tranferSuccess = _transfer(_from, _to, _amount);\n    if (tranferSuccess) {\n      allowed[_from][msg.sender] -= _amount;\n    } else {\n      return false;\n    }\n  }\n\n  function transferToAccount(bytes32 _toRoutingCode, uint _amount) external returns (bool success) {\n    return _transfer(msg.sender, routingCodeMap[_toRoutingCode], _amount);\n  }\n\n  // need to play around with this to figure out some of the specifics\n  function transferRoutingCode(bytes32 _routingCode, address _to) external returns (bool success) {\n    address owner = routingCodeMap[_routingCode];\n    require(msg.sender == owner);\n\n    routingCodeMap[_routingCode] = _to;\n    return true;\n  }\n}\n\ncontract FastCashMoneyPlus is FastCashMoneyPlusTransfer {\n\n}\n",
  "sourcePath": "/Users/spikelny/Desktop/projects/fastcash-ico/contracts/FastCashMoneyPlus.sol",
  "compiler": {
    "name": "solc",
    "version": "0.4.18+commit.9cf6e910.Emscripten.clang"
  },
  "schemaVersion": "1.0.1",
  "updatedAt": "2018-01-01T05:30:19.631Z"
}