{
  "contractName": "FastCashMoneyPlus",
  "abi": [
    {
      "constant": true,
      "inputs": [],
      "name": "creationDate",
      "outputs": [
        {
          "name": "",
          "type": "uint256"
        }
      ],
      "payable": false,
      "stateMutability": "view",
      "type": "function"
    },
    {
      "constant": true,
      "inputs": [],
      "name": "name",
      "outputs": [
        {
          "name": "",
          "type": "string"
        }
      ],
      "payable": false,
      "stateMutability": "view",
      "type": "function"
    },
    {
      "constant": false,
      "inputs": [
        {
          "name": "_spender",
          "type": "address"
        },
        {
          "name": "_value",
          "type": "uint256"
        }
      ],
      "name": "approve",
      "outputs": [
        {
          "name": "success",
          "type": "bool"
        }
      ],
      "payable": false,
      "stateMutability": "nonpayable",
      "type": "function"
    },
    {
      "constant": false,
      "inputs": [
        {
          "name": "_toRoutingCode",
          "type": "bytes32"
        },
        {
          "name": "_amount",
          "type": "uint256"
        }
      ],
      "name": "transferToAccount",
      "outputs": [
        {
          "name": "success",
          "type": "bool"
        }
      ],
      "payable": false,
      "stateMutability": "nonpayable",
      "type": "function"
    },
    {
      "constant": false,
      "inputs": [],
      "name": "weeksFromCreation",
      "outputs": [
        {
          "name": "",
          "type": "uint256"
        }
      ],
      "payable": false,
      "stateMutability": "nonpayable",
      "type": "function"
    },
    {
      "constant": true,
      "inputs": [],
      "name": "totalSupply",
      "outputs": [
        {
          "name": "",
          "type": "uint256"
        }
      ],
      "payable": false,
      "stateMutability": "view",
      "type": "function"
    },
    {
      "constant": true,
      "inputs": [],
      "name": "fastCashBank",
      "outputs": [
        {
          "name": "",
          "type": "uint256"
        }
      ],
      "payable": false,
      "stateMutability": "view",
      "type": "function"
    },
    {
      "constant": true,
      "inputs": [
        {
          "name": "",
          "type": "uint256"
        }
      ],
      "name": "routingCodes",
      "outputs": [
        {
          "name": "",
          "type": "bytes32"
        }
      ],
      "payable": false,
      "stateMutability": "view",
      "type": "function"
    },
    {
      "constant": false,
      "inputs": [
        {
          "name": "_from",
          "type": "address"
        },
        {
          "name": "_to",
          "type": "address"
        },
        {
          "name": "_amount",
          "type": "uint256"
        }
      ],
      "name": "transferFrom",
      "outputs": [
        {
          "name": "success",
          "type": "bool"
        }
      ],
      "payable": false,
      "stateMutability": "nonpayable",
      "type": "function"
    },
    {
      "constant": false,
      "inputs": [],
      "name": "totalInvestors",
      "outputs": [
        {
          "name": "",
          "type": "uint256"
        }
      ],
      "payable": false,
      "stateMutability": "nonpayable",
      "type": "function"
    },
    {
      "constant": false,
      "inputs": [
        {
          "name": "newCentralBanker",
          "type": "address"
        }
      ],
      "name": "setCentralBanker",
      "outputs": [],
      "payable": false,
      "stateMutability": "nonpayable",
      "type": "function"
    },
    {
      "constant": true,
      "inputs": [],
      "name": "decimals",
      "outputs": [
        {
          "name": "",
          "type": "uint8"
        }
      ],
      "payable": false,
      "stateMutability": "view",
      "type": "function"
    },
    {
      "constant": false,
      "inputs": [],
      "name": "getCurrentExchangeRate",
      "outputs": [
        {
          "name": "",
          "type": "uint256"
        }
      ],
      "payable": false,
      "stateMutability": "nonpayable",
      "type": "function"
    },
    {
      "constant": true,
      "inputs": [],
      "name": "centralBanker",
      "outputs": [
        {
          "name": "",
          "type": "address"
        }
      ],
      "payable": false,
      "stateMutability": "view",
      "type": "function"
    },
    {
      "constant": false,
      "inputs": [
        {
          "name": "_newSymbol",
          "type": "string"
        }
      ],
      "name": "updateSymbol",
      "outputs": [
        {
          "name": "success",
          "type": "bool"
        }
      ],
      "payable": false,
      "stateMutability": "nonpayable",
      "type": "function"
    },
    {
      "constant": true,
      "inputs": [],
      "name": "USDWEI",
      "outputs": [
        {
          "name": "",
          "type": "uint256"
        }
      ],
      "payable": false,
      "stateMutability": "view",
      "type": "function"
    },
    {
      "constant": false,
      "inputs": [
        {
          "name": "_routingCode",
          "type": "bytes32"
        },
        {
          "name": "_referal",
          "type": "bytes32"
        }
      ],
      "name": "buy",
      "outputs": [],
      "payable": true,
      "stateMutability": "payable",
      "type": "function"
    },
    {
      "constant": true,
      "inputs": [],
      "name": "referalBonus",
      "outputs": [
        {
          "name": "",
          "type": "uint256"
        }
      ],
      "payable": false,
      "stateMutability": "view",
      "type": "function"
    },
    {
      "constant": true,
      "inputs": [
        {
          "name": "",
          "type": "address"
        }
      ],
      "name": "balanceOf",
      "outputs": [
        {
          "name": "",
          "type": "uint256"
        }
      ],
      "payable": false,
      "stateMutability": "view",
      "type": "function"
    },
    {
      "constant": false,
      "inputs": [
        {
          "name": "routingCode",
          "type": "bytes32"
        }
      ],
      "name": "balanceOfRoutingCode",
      "outputs": [
        {
          "name": "",
          "type": "uint256"
        }
      ],
      "payable": false,
      "stateMutability": "nonpayable",
      "type": "function"
    },
    {
      "constant": false,
      "inputs": [
        {
          "name": "_to",
          "type": "address"
        },
        {
          "name": "_amount",
          "type": "uint256"
        }
      ],
      "name": "transferFromBank",
      "outputs": [
        {
          "name": "success",
          "type": "bool"
        }
      ],
      "payable": false,
      "stateMutability": "nonpayable",
      "type": "function"
    },
    {
      "constant": true,
      "inputs": [],
      "name": "symbol",
      "outputs": [
        {
          "name": "",
          "type": "string"
        }
      ],
      "payable": false,
      "stateMutability": "view",
      "type": "function"
    },
    {
      "constant": false,
      "inputs": [
        {
          "name": "_to",
          "type": "address"
        },
        {
          "name": "_amount",
          "type": "uint256"
        }
      ],
      "name": "transfer",
      "outputs": [
        {
          "name": "success",
          "type": "bool"
        }
      ],
      "payable": false,
      "stateMutability": "nonpayable",
      "type": "function"
    },
    {
      "constant": false,
      "inputs": [
        {
          "name": "_wei",
          "type": "uint256"
        }
      ],
      "name": "updateUSDWEI",
      "outputs": [
        {
          "name": "success",
          "type": "bool"
        }
      ],
      "payable": false,
      "stateMutability": "nonpayable",
      "type": "function"
    },
    {
      "constant": false,
      "inputs": [
        {
          "name": "_routingCode",
          "type": "bytes32"
        },
        {
          "name": "_to",
          "type": "address"
        }
      ],
      "name": "transferRoutingCode",
      "outputs": [
        {
          "name": "success",
          "type": "bool"
        }
      ],
      "payable": false,
      "stateMutability": "nonpayable",
      "type": "function"
    },
    {
      "constant": false,
      "inputs": [
        {
          "name": "_routingCode",
          "type": "bytes32"
        }
      ],
      "name": "createRoutingCode",
      "outputs": [
        {
          "name": "success",
          "type": "bool"
        }
      ],
      "payable": false,
      "stateMutability": "nonpayable",
      "type": "function"
    },
    {
      "constant": false,
      "inputs": [
        {
          "name": "_toRoutingCode",
          "type": "bytes32"
        },
        {
          "name": "_amount",
          "type": "uint256"
        }
      ],
      "name": "transferFromBankToAccount",
      "outputs": [
        {
          "name": "success",
          "type": "bool"
        }
      ],
      "payable": false,
      "stateMutability": "nonpayable",
      "type": "function"
    },
    {
      "constant": true,
      "inputs": [
        {
          "name": "_owner",
          "type": "address"
        },
        {
          "name": "_spender",
          "type": "address"
        }
      ],
      "name": "allowance",
      "outputs": [
        {
          "name": "remaining",
          "type": "uint256"
        }
      ],
      "payable": false,
      "stateMutability": "view",
      "type": "function"
    },
    {
      "constant": false,
      "inputs": [
        {
          "name": "_week",
          "type": "uint256"
        },
        {
          "name": "_value",
          "type": "uint256"
        },
        {
          "name": "_usdwei",
          "type": "uint256"
        }
      ],
      "name": "getExchangeRate",
      "outputs": [
        {
          "name": "",
          "type": "uint256"
        }
      ],
      "payable": false,
      "stateMutability": "nonpayable",
      "type": "function"
    },
    {
      "constant": false,
      "inputs": [
        {
          "name": "_newBonus",
          "type": "uint256"
        }
      ],
      "name": "updateReferalBonus",
      "outputs": [
        {
          "name": "success",
          "type": "bool"
        }
      ],
      "payable": false,
      "stateMutability": "nonpayable",
      "type": "function"
    },
    {
      "constant": true,
      "inputs": [
        {
          "name": "",
          "type": "bytes32"
        }
      ],
      "name": "routingCodeMap",
      "outputs": [
        {
          "name": "",
          "type": "address"
        }
      ],
      "payable": false,
      "stateMutability": "view",
      "type": "function"
    },
    {
      "payable": true,
      "stateMutability": "payable",
      "type": "fallback"
    },
    {
      "anonymous": false,
      "inputs": [
        {
          "indexed": true,
          "name": "_from",
          "type": "address"
        },
        {
          "indexed": true,
          "name": "_to",
          "type": "address"
        },
        {
          "indexed": false,
          "name": "_value",
          "type": "uint256"
        }
      ],
      "name": "Transfer",
      "type": "event"
    },
    {
      "anonymous": false,
      "inputs": [
        {
          "indexed": false,
          "name": "_address",
          "type": "address"
        },
        {
          "indexed": false,
          "name": "_amount",
          "type": "uint256"
        }
      ],
      "name": "Sale",
      "type": "event"
    },
    {
      "anonymous": false,
      "inputs": [
        {
          "indexed": true,
          "name": "_owner",
          "type": "address"
        },
        {
          "indexed": true,
          "name": "_spender",
          "type": "address"
        },
        {
          "indexed": false,
          "name": "_value",
          "type": "uint256"
        }
      ],
      "name": "Approval",
      "type": "event"
    }
  ],
  "bytecode": "0x60606040526040805190810160405280601181526020017f46617374436173684d6f6e6579506c75730000000000000000000000000000008152506001908051906020019062000051929190620001f4565b506040805190810160405280600881526020017f4641535443415348000000000000000000000000000000000000000000000000815250600290805190602001906200009f929190620001f4565b506012600360006101000a81548160ff021916908360ff1602179055506602b3374a078000600b55600a600c556000336000806101000a81548173ffffffffffffffffffffffffffffffffffffffff021916908373ffffffffffffffffffffffffffffffffffffffff1602179055507f656c656374726963474f445f504f5745527679533478593639523361522400009050600680548060010182816200014791906200027b565b9160005260206000209001600083909190915090600019169055503360046000836000191660001916815260200190815260200160002060006101000a81548173ffffffffffffffffffffffffffffffffffffffff021916908373ffffffffffffffffffffffffffffffffffffffff16021790555050600360009054906101000a900460ff1660ff16600a0a620f42400260088190555060085460098190555042600a81905550620002fa565b828054600181600116156101000203166002900490600052602060002090601f016020900481019282601f106200023757805160ff191683800117855562000268565b8280016001018555821562000268579182015b82811115620002675782518255916020019190600101906200024a565b5b509050620002779190620002aa565b5090565b815481835581811511620002a557818360005260206000209182019101620002a49190620002d2565b5b505050565b620002cf91905b80821115620002cb576000816000905550600101620002b1565b5090565b90565b620002f791905b80821115620002f3576000816000905550600101620002d9565b5090565b90565b611ed1806200030a6000396000f30060606040526004361061018b576000357c0100000000000000000000000000000000000000000000000000000000900463ffffffff16806305b344101461019657806306fdde03146101bf578063095ea7b31461024d5780631084a1fb146102a757806317a7cd10146102ef57806318160ddd1461031857806321d269dc146103415780632263e8b71461036a57806323b872dd146103a957806329b8caff146104225780632adc7da31461044b578063313ce567146104845780633ca967f3146104b3578063506b56da146104dc578063537f53121461053157806354fbde651461057757806359c8d647146105a057806363e0f8c7146105c957806370a08231146105f25780637139b1ca1461063f578063717b37261461067a57806395d89b41146106d4578063a9059cbb14610762578063d5667d8a146107bc578063d9ca0b7f146107f7578063dbeab27514610855578063dd450d4e14610894578063dd62ed3e146108dc578063eccd8e0d14610948578063edb649de14610991578063edf89793146109cc575b610193610a33565b50005b34156101a157600080fd5b6101a9610ba7565b6040518082815260200191505060405180910390f35b34156101ca57600080fd5b6101d2610bad565b6040518080602001828103825283818151815260200191508051906020019080838360005b838110156102125780820151818401526020810190506101f7565b50505050905090810190601f16801561023f5780820380516001836020036101000a031916815260200191505b509250505060405180910390f35b341561025857600080fd5b61028d600480803573ffffffffffffffffffffffffffffffffffffffff16906020019091908035906020019091905050610c4b565b604051808215151515815260200191505060405180910390f35b34156102b257600080fd5b6102d5600480803560001916906020019091908035906020019091905050610d3d565b604051808215151515815260200191505060405180910390f35b34156102fa57600080fd5b610302610d8d565b6040518082815260200191505060405180910390f35b341561032357600080fd5b61032b610da7565b6040518082815260200191505060405180910390f35b341561034c57600080fd5b610354610dad565b6040518082815260200191505060405180910390f35b341561037557600080fd5b61038b6004808035906020019091905050610db3565b60405180826000191660001916815260200191505060405180910390f35b34156103b457600080fd5b610408600480803573ffffffffffffffffffffffffffffffffffffffff1690602001909190803573ffffffffffffffffffffffffffffffffffffffff16906020019091908035906020019091905050610dd7565b604051808215151515815260200191505060405180910390f35b341561042d57600080fd5b610435610f19565b6040518082815260200191505060405180910390f35b341561045657600080fd5b610482600480803573ffffffffffffffffffffffffffffffffffffffff16906020019091905050610f26565b005b341561048f57600080fd5b610497611000565b604051808260ff1660ff16815260200191505060405180910390f35b34156104be57600080fd5b6104c6611013565b6040518082815260200191505060405180910390f35b34156104e757600080fd5b6104ef611035565b604051808273ffffffffffffffffffffffffffffffffffffffff1673ffffffffffffffffffffffffffffffffffffffff16815260200191505060405180910390f35b341561053c57600080fd5b61055d6004808035906020019082018035906020019190919290505061105a565b604051808215151515815260200191505060405180910390f35b341561058257600080fd5b61058a6110d3565b6040518082815260200191505060405180910390f35b6105c7600480803560001916906020019091908035600019169060200190919050506110d9565b005b34156105d457600080fd5b6105dc6112fd565b6040518082815260200191505060405180910390f35b34156105fd57600080fd5b610629600480803573ffffffffffffffffffffffffffffffffffffffff16906020019091905050611303565b6040518082815260200191505060405180910390f35b341561064a57600080fd5b61066460048080356000191690602001909190505061131b565b6040518082815260200191505060405180910390f35b341561068557600080fd5b6106ba600480803573ffffffffffffffffffffffffffffffffffffffff169060200190919080359060200190919050506113a4565b604051808215151515815260200191505060405180910390f35b34156106df57600080fd5b6106e7611413565b6040518080602001828103825283818151815260200191508051906020019080838360005b8381101561072757808201518184015260208101905061070c565b50505050905090810190601f1680156107545780820380516001836020036101000a031916815260200191505b509250505060405180910390f35b341561076d57600080fd5b6107a2600480803573ffffffffffffffffffffffffffffffffffffffff169060200190919080359060200190919050506114b1565b604051808215151515815260200191505060405180910390f35b34156107c757600080fd5b6107dd60048080359060200190919050506114c6565b604051808215151515815260200191505060405180910390f35b341561080257600080fd5b61083b60048080356000191690602001909190803573ffffffffffffffffffffffffffffffffffffffff16906020019091905050611533565b604051808215151515815260200191505060405180910390f35b341561086057600080fd5b61087a600480803560001916906020019091905050611613565b604051808215151515815260200191505060405180910390f35b341561089f57600080fd5b6108c260048080356000191690602001909190803590602001909190505061171c565b604051808215151515815260200191505060405180910390f35b34156108e757600080fd5b610932600480803573ffffffffffffffffffffffffffffffffffffffff1690602001909190803573ffffffffffffffffffffffffffffffffffffffff169060200190919050506117c6565b6040518082815260200191505060405180910390f35b341561095357600080fd5b61097b600480803590602001909190803590602001909190803590602001909190505061184d565b6040518082815260200191505060405180910390f35b341561099c57600080fd5b6109b260048080359060200190919050506118eb565b604051808215151515815260200191505060405180910390f35b34156109d757600080fd5b6109f1600480803560001916906020019091905050611958565b604051808273ffffffffffffffffffffffffffffffffffffffff1673ffffffffffffffffffffffffffffffffffffffff16815260200191505060405180910390f35b600080600080610a41610d8d565b9250349150610a538383600b5461184d565b9050600081111515610a6457600080fd5b8060095410151515610a7557600080fd5b80600560003373ffffffffffffffffffffffffffffffffffffffff1673ffffffffffffffffffffffffffffffffffffffff16815260200190815260200160002060008282540192505081905550806009600082825403925050819055506000809054906101000a900473ffffffffffffffffffffffffffffffffffffffff1673ffffffffffffffffffffffffffffffffffffffff166108fc349081150290604051600060405180830381858888f193505050501515610b3357600080fd5b7fc6851889326b4ff916523ef06f539b4cf0b81d78fc6e0f97c30e6223d18319903382604051808373ffffffffffffffffffffffffffffffffffffffff1673ffffffffffffffffffffffffffffffffffffffff1681526020018281526020019250505060405180910390a180935050505090565b600a5481565b60018054600181600116156101000203166002900480601f016020809104026020016040519081016040528092919081815260200182805460018160011615610100020316600290048015610c435780601f10610c1857610100808354040283529160200191610c43565b820191906000526020600020905b815481529060010190602001808311610c2657829003601f168201915b505050505081565b600081600760003373ffffffffffffffffffffffffffffffffffffffff1673ffffffffffffffffffffffffffffffffffffffff16815260200190815260200160002060008573ffffffffffffffffffffffffffffffffffffffff1673ffffffffffffffffffffffffffffffffffffffff168152602001908152602001600020819055508273ffffffffffffffffffffffffffffffffffffffff163373ffffffffffffffffffffffffffffffffffffffff167f8c5be1e5ebec7d5bd14f71427d1e84f3dd0314c0f7b2291e5b200ac8c7c3b925846040518082815260200191505060405180910390a36001905092915050565b6000610d853360046000866000191660001916815260200190815260200160002060009054906101000a900473ffffffffffffffffffffffffffffffffffffffff168461198b565b905092915050565b600062093a80600a544203811515610da157fe5b04905090565b60085481565b60095481565b600681815481101515610dc257fe5b90600052602060002090016000915090505481565b60008082600760008773ffffffffffffffffffffffffffffffffffffffff1673ffffffffffffffffffffffffffffffffffffffff16815260200190815260200160002060003373ffffffffffffffffffffffffffffffffffffffff1673ffffffffffffffffffffffffffffffffffffffff1681526020019081526020016000205410151515610e6557600080fd5b610e7085858561198b565b90508015610f075782600760008773ffffffffffffffffffffffffffffffffffffffff1673ffffffffffffffffffffffffffffffffffffffff16815260200190815260200160002060003373ffffffffffffffffffffffffffffffffffffffff1673ffffffffffffffffffffffffffffffffffffffff16815260200190815260200160002060008282540392505081905550610f10565b60009150610f11565b5b509392505050565b6000600680549050905090565b6000809054906101000a900473ffffffffffffffffffffffffffffffffffffffff1673ffffffffffffffffffffffffffffffffffffffff163373ffffffffffffffffffffffffffffffffffffffff16141515610f8157600080fd5b600073ffffffffffffffffffffffffffffffffffffffff168173ffffffffffffffffffffffffffffffffffffffff1614151515610fbd57600080fd5b806000806101000a81548173ffffffffffffffffffffffffffffffffffffffff021916908373ffffffffffffffffffffffffffffffffffffffff16021790555050565b600360009054906101000a900460ff1681565b60008061101e610d8d565b905061102f81600b54600b5461184d565b91505090565b6000809054906101000a900473ffffffffffffffffffffffffffffffffffffffff1681565b60008060009054906101000a900473ffffffffffffffffffffffffffffffffffffffff1673ffffffffffffffffffffffffffffffffffffffff163373ffffffffffffffffffffffffffffffffffffffff161415156110b757600080fd5b8282600291906110c8929190611daf565b506001905092915050565b600b5481565b6000806000806110e7610a33565b9350600073ffffffffffffffffffffffffffffffffffffffff1660046000886000191660001916815260200190815260200160002060009054906101000a900473ffffffffffffffffffffffffffffffffffffffff1673ffffffffffffffffffffffffffffffffffffffff1614156111715761116286611613565b925082151561117057600080fd5b5b60007f0100000000000000000000000000000000000000000000000000000000000000028560006020811015156111a457fe5b1a7f0100000000000000000000000000000000000000000000000000000000000000027effffffffffffffffffffffffffffffffffffffffffffffffffffffffffffff19161415156112f557600c54848115156111fd57fe5b04600954111561121c57600c548481151561121457fe5b049150611222565b60095491505b60046000866000191660001916815260200190815260200160002060009054906101000a900473ffffffffffffffffffffffffffffffffffffffff169050600073ffffffffffffffffffffffffffffffffffffffff168173ffffffffffffffffffffffffffffffffffffffff161415156112f45781600560008373ffffffffffffffffffffffffffffffffffffffff1673ffffffffffffffffffffffffffffffffffffffff16815260200190815260200160002060008282540192505081905550816009600082825403925050819055505b5b505050505050565b600c5481565b60056020528060005260406000206000915090505481565b60008060046000846000191660001916815260200190815260200160002060009054906101000a900473ffffffffffffffffffffffffffffffffffffffff169050600560008273ffffffffffffffffffffffffffffffffffffffff1673ffffffffffffffffffffffffffffffffffffffff16815260200190815260200160002054915050919050565b60008060009054906101000a900473ffffffffffffffffffffffffffffffffffffffff1673ffffffffffffffffffffffffffffffffffffffff163373ffffffffffffffffffffffffffffffffffffffff1614151561140157600080fd5b61140b8383611bf8565b905092915050565b60028054600181600116156101000203166002900480601f0160208091040260200160405190810160405280929190818152602001828054600181600116156101000203166002900480156114a95780601f1061147e576101008083540402835291602001916114a9565b820191906000526020600020905b81548152906001019060200180831161148c57829003601f168201915b505050505081565b60006114be33848461198b565b905092915050565b60008060009054906101000a900473ffffffffffffffffffffffffffffffffffffffff1673ffffffffffffffffffffffffffffffffffffffff163373ffffffffffffffffffffffffffffffffffffffff1614151561152357600080fd5b81600b8190555060019050919050565b60008060046000856000191660001916815260200190815260200160002060009054906101000a900473ffffffffffffffffffffffffffffffffffffffff1690508073ffffffffffffffffffffffffffffffffffffffff163373ffffffffffffffffffffffffffffffffffffffff161415156115ae57600080fd5b8260046000866000191660001916815260200190815260200160002060006101000a81548173ffffffffffffffffffffffffffffffffffffffff021916908373ffffffffffffffffffffffffffffffffffffffff160217905550600191505092915050565b60008073ffffffffffffffffffffffffffffffffffffffff1660046000846000191660001916815260200190815260200160002060009054906101000a900473ffffffffffffffffffffffffffffffffffffffff1673ffffffffffffffffffffffffffffffffffffffff1614151561168a57600080fd5b3360046000846000191660001916815260200190815260200160002060006101000a81548173ffffffffffffffffffffffffffffffffffffffff021916908373ffffffffffffffffffffffffffffffffffffffff160217905550600680548060010182816116f89190611e2f565b91600052602060002090016000849091909150906000191690555060019050919050565b60008060009054906101000a900473ffffffffffffffffffffffffffffffffffffffff1673ffffffffffffffffffffffffffffffffffffffff163373ffffffffffffffffffffffffffffffffffffffff1614151561177957600080fd5b6117be60046000856000191660001916815260200190815260200160002060009054906101000a900473ffffffffffffffffffffffffffffffffffffffff1683611bf8565b905092915050565b6000600760008473ffffffffffffffffffffffffffffffffffffffff1673ffffffffffffffffffffffffffffffffffffffff16815260200190815260200160002060008373ffffffffffffffffffffffffffffffffffffffff1673ffffffffffffffffffffffffffffffffffffffff16815260200190815260200160002054905092915050565b600080600080600080600060478a111561186a576047955061186e565b8995505b600094506032861115611882576032860394505b600a9350848401600360009054906101000a900460ff1660ff16870103925082600a0a60048a0202915084600a0a86600c0a8115156118bd57fe5b0484600a0a898115156118cc57fe5b0402905080828115156118db57fe5b0496505050505050509392505050565b60008060009054906101000a900473ffffffffffffffffffffffffffffffffffffffff1673ffffffffffffffffffffffffffffffffffffffff163373ffffffffffffffffffffffffffffffffffffffff1614151561194857600080fd5b81600c8190555060019050919050565b60046020528060005260406000206000915054906101000a900473ffffffffffffffffffffffffffffffffffffffff1681565b60008073ffffffffffffffffffffffffffffffffffffffff168373ffffffffffffffffffffffffffffffffffffffff16141515156119c857600080fd5b3073ffffffffffffffffffffffffffffffffffffffff168373ffffffffffffffffffffffffffffffffffffffff1614151515611a0357600080fd5b600082111515611a1257600080fd5b81600560008673ffffffffffffffffffffffffffffffffffffffff1673ffffffffffffffffffffffffffffffffffffffff1681526020019081526020016000205410151515611a6057600080fd5b600560008473ffffffffffffffffffffffffffffffffffffffff1673ffffffffffffffffffffffffffffffffffffffff1681526020019081526020016000205482600560008673ffffffffffffffffffffffffffffffffffffffff1673ffffffffffffffffffffffffffffffffffffffff1681526020019081526020016000205401111515611aee57600080fd5b81600560008673ffffffffffffffffffffffffffffffffffffffff1673ffffffffffffffffffffffffffffffffffffffff1681526020019081526020016000206000828254039250508190555081600560008573ffffffffffffffffffffffffffffffffffffffff1673ffffffffffffffffffffffffffffffffffffffff168152602001908152602001600020600082825401925050819055508273ffffffffffffffffffffffffffffffffffffffff163373ffffffffffffffffffffffffffffffffffffffff167fddf252ad1be2c89b69c2b068fc378daa952ba7f163c4a11628f55a4df523b3ef846040518082815260200191505060405180910390a3600190509392505050565b60008073ffffffffffffffffffffffffffffffffffffffff168373ffffffffffffffffffffffffffffffffffffffff1614151515611c3557600080fd5b600082111515611c4457600080fd5b8160095410151515611c5557600080fd5b600560008473ffffffffffffffffffffffffffffffffffffffff1673ffffffffffffffffffffffffffffffffffffffff1681526020019081526020016000205482600560008673ffffffffffffffffffffffffffffffffffffffff1673ffffffffffffffffffffffffffffffffffffffff1681526020019081526020016000205401111515611ce357600080fd5b8160096000828254039250508190555081600560008573ffffffffffffffffffffffffffffffffffffffff1673ffffffffffffffffffffffffffffffffffffffff168152602001908152602001600020600082825401925050819055508273ffffffffffffffffffffffffffffffffffffffff163373ffffffffffffffffffffffffffffffffffffffff167fddf252ad1be2c89b69c2b068fc378daa952ba7f163c4a11628f55a4df523b3ef846040518082815260200191505060405180910390a36001905092915050565b828054600181600116156101000203166002900490600052602060002090601f016020900481019282601f10611df057803560ff1916838001178555611e1e565b82800160010185558215611e1e579182015b82811115611e1d578235825591602001919060010190611e02565b5b509050611e2b9190611e5b565b5090565b815481835581811511611e5657818360005260206000209182019101611e559190611e80565b5b505050565b611e7d91905b80821115611e79576000816000905550600101611e61565b5090565b90565b611ea291905b80821115611e9e576000816000905550600101611e86565b5090565b905600a165627a7a723058200f76c1a40d48a8c45b9c5c45451f2f462da25698418d31c43064a2f5bcf26cd70029",
  "source": "pragma solidity ^0.4.17;\n\n/*\n  Copyright 2017, FastCashMoneyPlus.biz\n\n  This is highly propriatary software. Under no circumstances is anyone, except for employees of\n  FastCashMoneyPlus.biz, authorized to modify, distribute, use, or otherwise profit from these\n  contracts. Anyone attempting to do so will be prosecuted under the full extent of the law.\n*/\n\n\n// Set executive permissions of contract\ncontract FastCashMoneyPlusPermissions {\n  address public centralBanker;\n\n  function FastCashMoneyPlusPermissions() public {\n    centralBanker = msg.sender;\n  }\n\n  modifier onlyCentralBanker() {\n    require(msg.sender == centralBanker);\n    _;\n  }\n\n  function setCentralBanker(address newCentralBanker) external onlyCentralBanker {\n    require(newCentralBanker != address(0));\n    centralBanker = newCentralBanker;\n  }\n}\n\n// Set identifying information\ncontract FastCashMoneyPlusBase is FastCashMoneyPlusPermissions {\n  string public name = \"FastCashMoneyPlus\";\n  string public symbol = \"FASTCASH\";\n  uint8 public decimals = 18;\n\n  function updateSymbol(string _newSymbol) external onlyCentralBanker returns (bool success) {\n    symbol = _newSymbol;\n    return true;\n  }\n}\n\n// Describe the storage mechanism of the contract\n// balanceOf refers to the standard mapping of eth address => balance\n// routingCodes refer to a shorter, human-readable string (but stored as bytes)\n// routingCodes are used primerally for referal fees, but can also be used to transfer FastCash\ncontract FastCashMoneyPlusStorage is FastCashMoneyPlusBase {\n  mapping (bytes32 => address) public routingCodeMap;\n  mapping (address => uint) public balanceOf;\n  bytes32[] public routingCodes;\n\n  function FastCashMoneyPlusStorage() {\n    bytes32 centralBankerRoutingCode = \"electricGOD_POWERvyS4xY69R3aR$\";\n    routingCodes.push(centralBankerRoutingCode);\n    routingCodeMap[centralBankerRoutingCode] = msg.sender;\n  }\n\n  function balanceOfRoutingCode(bytes32 routingCode) external returns (uint) {\n    address _address = routingCodeMap[routingCode];\n    return balanceOf[_address];\n  }\n\n  function totalInvestors() external returns (uint) {\n    return routingCodes.length;\n  }\n\n  function createRoutingCode(bytes32 _routingCode) public returns (bool success) {\n    require(routingCodeMap[_routingCode] == address(0));\n\n    routingCodeMap[_routingCode] = msg.sender;\n    routingCodes.push(_routingCode);\n    return true;\n  }\n}\n\n// Maintain ERC20 compliance -- allow other contracts to access accounts\ncontract FastCashMoneyPlusAccessControl is FastCashMoneyPlusStorage {\n  mapping (address => mapping (address => uint)) internal allowed;\n\n  event Approval(address indexed _owner, address indexed _spender, uint _value);\n\n  function approve(address _spender, uint _value) external returns (bool success) {\n    allowed[msg.sender][_spender] = _value;\n    Approval(msg.sender, _spender, _value);\n    return true;\n  }\n  function allowance(address _owner, address _spender) external constant returns (uint remaining) {\n    return allowed[_owner][_spender];\n  }\n}\n\n/*\nHandle all the logic for selling FastCash to the public\n  The total supply is 1000000 FastCash.\n  But, because solidity does not support floating point numbers, we create a \"smallest denomination\", equal to 10e-18 FastCash\n  This smallest denomination is called the \"MoneyBuck\"\n  Additionally, contracts do not support numbers larger than 2^256 (~1.15e77)\n\n  The price of FastCash in WEI increases by 20% every week, up to week 71.\n  In order to keep the price consistent with USD, the ETH price is adjusted by the USDWEI rate (which the central banker may change).\n\n  The USD/FASTCASH rate is then $0.25 * (1.2 ** weeksSinceStart)\n  Whereas, the ETH/FASTCASH rate is USD/FASTCASH * ETH/USD\n\n  But, due to the decimal place restriction, we must multiply single decimal places by 10, and crypto amounts by 10^18, and only divide big numbers.\n  So, WEI/FASTCASH = WEI/USD * ( 4 / ((12 ** weeksSinceStart) / 10) )\n  (To maintain consistency with other currency exchange symbols, WEI/USD is referred to as USDWEI)\n  getExchangeRate uses algebra to adjust these numbers further, such that no point of the calculation refers to a number greater than 2^256.\n\n\n  Additionally, all purchases of FASTCASH going through the `buy` channel (which may have a routingCode as referal), credit the referrer with a FastCash bonus equal to 10% of the sale amount.\n*/\ncontract FastCashMoneyPlusSales is FastCashMoneyPlusAccessControl {\n  uint256 public totalSupply;\n  uint256 public fastCashBank;\n  uint public creationDate;\n  uint private constant oneWeek = 60 * 60 * 24 * 7;\n  uint public USDWEI = 760000000000000;\n  uint public referalBonus = 10;\n\n  event Sale(address _address, uint _amount);\n\n  function FastCashMoneyPlusSales() public {\n    totalSupply = 1000000 * 10 ** uint256(decimals);\n    fastCashBank = totalSupply;\n    creationDate = now;\n  }\n\n  function updateUSDWEI(uint _wei) external onlyCentralBanker returns (bool success) {\n    USDWEI = _wei;\n    return true;\n  }\n\n  function updateReferalBonus(uint _newBonus) external onlyCentralBanker returns (bool success) {\n    referalBonus = _newBonus;\n    return true;\n  }\n\n  function weeksFromCreation() returns (uint) {\n    return (now - creationDate) / oneWeek;\n  }\n\n  function getExchangeRate(uint _week, uint _value, uint _usdwei) public returns (uint) {\n    uint __week;\n    if (_week > 71) {\n      __week = 71;\n    } else {\n      __week = _week;\n    }\n\n    uint extraAdj = 0;\n    if (__week > 50) {\n      extraAdj = __week - 50;\n    }\n\n    uint minAdj = 10;\n    uint x = __week + decimals - (minAdj + extraAdj);\n\n    uint n = _value * 4 * uint(10 ** x);\n    uint d = ( _usdwei / uint(10 ** minAdj) ) * (uint(12 ** __week) / uint(10 ** extraAdj));\n\n    return n / d;\n  }\n\n  function getCurrentExchangeRate() public returns (uint) {\n    uint _week = weeksFromCreation();\n    return getExchangeRate(_week, USDWEI, USDWEI);\n  }\n\n  function _makeSale() private returns (uint) {\n    uint _week = weeksFromCreation();\n    uint _value = msg.value;\n\n    uint moneyBucks = getExchangeRate(_week, _value, USDWEI);\n\n    require(moneyBucks > 0);\n    require(fastCashBank >= moneyBucks);\n\n    balanceOf[msg.sender] += moneyBucks;\n    fastCashBank -= moneyBucks;\n\n    centralBanker.transfer(msg.value);\n    Sale(msg.sender, moneyBucks);\n    return moneyBucks;\n  }\n\n  function buy(bytes32 _routingCode, bytes32 _referal) payable {\n    uint moneyBucks = _makeSale();\n\n    if (routingCodeMap[_routingCode] == address(0)) {\n      bool routingCodeCreated = createRoutingCode(_routingCode);\n      require(routingCodeCreated);\n    }\n\n    if (_referal[0] != 0) {\n      uint referalFee;\n      if (fastCashBank > (moneyBucks / referalBonus)) {\n        referalFee = moneyBucks / referalBonus;\n      } else {\n        referalFee = fastCashBank;\n      }\n      address reference = routingCodeMap[_referal];\n      if (reference != address(0)) {\n        balanceOf[reference] += referalFee;\n        fastCashBank -= referalFee;\n      }\n    }\n  }\n\n  function () payable {\n    _makeSale();\n  }\n}\n\n// Transfer FastCash between accounts by either ETH address or FastCash routingCode\ncontract FastCashMoneyPlusTransfer is FastCashMoneyPlusSales {\n  event Transfer(address indexed _from, address indexed _to, uint _value);\n\n  function _transfer(\n    address _from,\n    address _to,\n    uint _amount\n  ) internal returns (bool success) {\n    require(_to != address(0));\n    require(_to != address(this));\n    require(_amount > 0);\n    require(balanceOf[_from] >= _amount);\n    require(balanceOf[_to] + _amount > balanceOf[_to]);\n\n    balanceOf[_from] -= _amount;\n    balanceOf[_to] += _amount;\n\n    Transfer(msg.sender, _to, _amount);\n\n    return true;\n  }\n\n  function transfer(address _to, uint _amount) external returns (bool success) {\n    return _transfer(msg.sender, _to, _amount);\n  }\n\n  function transferFrom(address _from, address _to, uint _amount) external returns (bool success) {\n    require(allowed[_from][msg.sender] >= _amount);\n\n    bool tranferSuccess = _transfer(_from, _to, _amount);\n    if (tranferSuccess) {\n      allowed[_from][msg.sender] -= _amount;\n    } else {\n      return false;\n    }\n  }\n\n  function transferToAccount(bytes32 _toRoutingCode, uint _amount) external returns (bool success) {\n    return _transfer(msg.sender, routingCodeMap[_toRoutingCode], _amount);\n  }\n\n  // need to play around with this to figure out some of the specifics\n  function transferRoutingCode(bytes32 _routingCode, address _to) external returns (bool success) {\n    address owner = routingCodeMap[_routingCode];\n    require(msg.sender == owner);\n\n    routingCodeMap[_routingCode] = _to;\n    return true;\n  }\n\n  function _transferFromBank(address _to, uint _amount) internal returns (bool success) {\n    require(_to != address(0));\n    require(_amount > 0);\n    require(fastCashBank >= _amount);\n    require(balanceOf[_to] + _amount > balanceOf[_to]);\n\n    fastCashBank -= _amount;\n    balanceOf[_to] += _amount;\n\n    Transfer(msg.sender, _to, _amount);\n\n    return true;\n  }\n  function transferFromBank(address _to, uint _amount) external onlyCentralBanker returns (bool success) {\n    return _transferFromBank(_to, _amount);\n  }\n\n  function transferFromBankToAccount(bytes32 _toRoutingCode, uint _amount) external onlyCentralBanker returns (bool success) {\n    return _transferFromBank(routingCodeMap[_toRoutingCode], _amount);\n  }\n}\n\ncontract FastCashMoneyPlus is FastCashMoneyPlusTransfer {\n\n}\n",
  "sourcePath": "/Users/spikelny/Desktop/projects/fastcash-ico/contracts/FastCashMoneyPlus.sol",
  "compiler": {
    "name": "solc",
    "version": "0.4.18+commit.9cf6e910.Emscripten.clang"
  },
  "schemaVersion": "1.0.1",
  "updatedAt": "2018-01-15T20:44:05.783Z"
}